{
	"data": {
		"bytecode": {
			"linkReferences": {},
			"object": "608060405234801561001057600080fd5b506040518060400160405280600581526020016023815250600260405161003690610083565b908152602001604051809103902060008201518160000155602082015181600101559050506100cc565b600061006d600983610098565b9150610078826100a3565b600982019050919050565b600061008e82610060565b9150819050919050565b600081905092915050565b7f53696e6761706f72650000000000000000000000000000000000000000000000600082015250565b611444806100db6000396000f3fe60806040526004361061007b5760003560e01c80632e2f62321161004e5780632e2f62321461016457806330f53f5b146101945780633e974073146101bd5780638f88708b146101fa5761007b565b8063024a9fee146100805780630d4bf50d146100bd5780630de0433a146100e85780631c6a73ae14610125575b600080fd5b34801561008c57600080fd5b506100a760048036038101906100a29190610c22565b61023a565b6040516100b49190610ec1565b60405180910390f35b3480156100c957600080fd5b506100d2610271565b6040516100df9190610e9f565b60405180910390f35b3480156100f457600080fd5b5061010f600480360381019061010a9190610cb1565b61034a565b60405161011c9190610f35565b60405180910390f35b34801561013157600080fd5b5061014c60048036038101906101479190610a31565b61036c565b60405161015b93929190610edc565b60405180910390f35b61017e60048036038101906101799190610b69565b61046f565b60405161018b9190610ec1565b60405180910390f35b3480156101a057600080fd5b506101bb60048036038101906101b69190610a72565b610623565b005b3480156101c957600080fd5b506101e460048036038101906101df9190610b02565b6106d1565b6040516101f19190610f1a565b60405180910390f35b34801561020657600080fd5b50610221600480360381019061021c9190610ad9565b61076f565b6040516102319493929190610f50565b60405180910390f35b6000806102488484876106d1565b9050600061025f888360000151846020015161034a565b90508681149250505095945050505050565b60606003805480602002602001604051908101604052809291908181526020016000905b828210156103415783829060005260206000200180546102b490611289565b80601f01602080910402602001604051908101604052809291908181526020018280546102e090611289565b801561032d5780601f106103025761010080835404028352916020019161032d565b820191906000526020600020905b81548152906001019060200180831161031057829003601f168201915b505050505081526020019060010190610295565b50505050905090565b60008183856103599190611113565b61036391906112ec565b90509392505050565b60606000806004846040516103819190610e88565b90815260200160405180910390206000016004856040516103a29190610e88565b9081526020016040518091039020600101546004866040516103c49190610e88565b9081526020016040518091039020600201548280546103e290611289565b80601f016020809104026020016040519081016040528092919081815260200182805461040e90611289565b801561045b5780601f106104305761010080835404028352916020019161045b565b820191906000526020600020905b81548152906001019060200180831161043e57829003601f168201915b505050505092509250925092509193909250565b600061047e878786868661023a565b15610614576000869080600181540180825580915050600190039060005260206000200160009091909190915055604051806080016040528087815260200186815260200185815260200142815250600160008881526020019081526020016000206000820151816000015560208201518160010190805190602001906105069291906108f7565b5060408201518160020190805190602001906105239291906108f7565b506060820151816003015590505060006004856040516105439190610e88565b90815260200160405180910390206001015414156105d1576040518060600160405280858152602001629896808152602001600181525060048560405161058a9190610e88565b908152602001604051809103902060008201518160000190805190602001906105b49291906108f7565b50602082015181600101556040820151816002015590505061060b565b60016004856040516105e39190610e88565b90815260200160405180910390206002016000828254610603919061106a565b925050819055505b60019050610619565b600090505b9695505050505050565b60405180606001604052808481526020018381526020018281525060048460405161064e9190610e88565b908152602001604051809103902060008201518160000190805190602001906106789291906108f7565b5060208201518160010155604082015181600201559050506003839080600181540180825580915050600190039060005260206000200160009091909190915090805190602001906106cb9291906108f7565b50505050565b6106d961097d565b60006002836040516106eb9190610e88565b9081526020016040518091039020604051806040016040529081600082015481526020016001820154815250509050600061072f868360000151846020015161034a565b90506000610746868460000151856020015161034a565b905060006040518060400160405280848152602001838152509050809450505050509392505050565b600060608060006001600086815260200190815260200160002060000154600160008781526020019081526020016000206001016001600088815260200190815260200160002060020160016000898152602001908152602001600020600301548280546107dc90611289565b80601f016020809104026020016040519081016040528092919081815260200182805461080890611289565b80156108555780601f1061082a57610100808354040283529160200191610855565b820191906000526020600020905b81548152906001019060200180831161083857829003601f168201915b5050505050925081805461086890611289565b80601f016020809104026020016040519081016040528092919081815260200182805461089490611289565b80156108e15780601f106108b6576101008083540402835291602001916108e1565b820191906000526020600020905b8154815290600101906020018083116108c457829003601f168201915b5050505050915093509350935093509193509193565b82805461090390611289565b90600052602060002090601f016020900481019282610925576000855561096c565b82601f1061093e57805160ff191683800117855561096c565b8280016001018555821561096c579182015b8281111561096b578251825591602001919060010190610950565b5b5090506109799190610997565b5090565b604051806040016040528060008152602001600081525090565b5b808211156109b0576000816000905550600101610998565b5090565b60006109c76109c284610fc8565b610fa3565b9050828152602081018484840111156109df57600080fd5b6109ea848285611247565b509392505050565b600082601f830112610a0357600080fd5b8135610a138482602086016109b4565b91505092915050565b600081359050610a2b816113f7565b92915050565b600060208284031215610a4357600080fd5b600082013567ffffffffffffffff811115610a5d57600080fd5b610a69848285016109f2565b91505092915050565b600080600060608486031215610a8757600080fd5b600084013567ffffffffffffffff811115610aa157600080fd5b610aad868287016109f2565b9350506020610abe86828701610a1c565b9250506040610acf86828701610a1c565b9150509250925092565b600060208284031215610aeb57600080fd5b6000610af984828501610a1c565b91505092915050565b600080600060608486031215610b1757600080fd5b6000610b2586828701610a1c565b9350506020610b3686828701610a1c565b925050604084013567ffffffffffffffff811115610b5357600080fd5b610b5f868287016109f2565b9150509250925092565b60008060008060008060c08789031215610b8257600080fd5b6000610b9089828a01610a1c565b9650506020610ba189828a01610a1c565b955050604087013567ffffffffffffffff811115610bbe57600080fd5b610bca89828a016109f2565b945050606087013567ffffffffffffffff811115610be757600080fd5b610bf389828a016109f2565b9350506080610c0489828a01610a1c565b92505060a0610c1589828a01610a1c565b9150509295509295509295565b600080600080600060a08688031215610c3a57600080fd5b6000610c4888828901610a1c565b9550506020610c5988828901610a1c565b945050604086013567ffffffffffffffff811115610c7657600080fd5b610c82888289016109f2565b9350506060610c9388828901610a1c565b9250506080610ca488828901610a1c565b9150509295509295909350565b600080600060608486031215610cc657600080fd5b6000610cd486828701610a1c565b9350506020610ce586828701610a1c565b9250506040610cf686828701610a1c565b9150509250925092565b6000610d0c8383610d98565b905092915050565b6000610d1f82611009565b610d29818561102c565b935083602082028501610d3b85610ff9565b8060005b85811015610d775784840389528151610d588582610d00565b9450610d638361101f565b925060208a01995050600181019050610d3f565b50829750879550505050505092915050565b610d9281611231565b82525050565b6000610da382611014565b610dad818561103d565b9350610dbd818560208601611256565b610dc6816113d9565b840191505092915050565b6000610ddc82611014565b610de6818561104e565b9350610df6818560208601611256565b610dff816113d9565b840191505092915050565b6000610e1582611014565b610e1f818561105f565b9350610e2f818560208601611256565b80840191505092915050565b604082016000820151610e516000850182610e6a565b506020820151610e646020850182610e6a565b50505050565b610e738161123d565b82525050565b610e828161123d565b82525050565b6000610e948284610e0a565b915081905092915050565b60006020820190508181036000830152610eb98184610d14565b905092915050565b6000602082019050610ed66000830184610d89565b92915050565b60006060820190508181036000830152610ef68186610dd1565b9050610f056020830185610e79565b610f126040830184610e79565b949350505050565b6000604082019050610f2f6000830184610e3b565b92915050565b6000602082019050610f4a6000830184610e79565b92915050565b6000608082019050610f656000830187610e79565b8181036020830152610f778186610dd1565b90508181036040830152610f8b8185610dd1565b9050610f9a6060830184610e79565b95945050505050565b6000610fad610fbe565b9050610fb982826112bb565b919050565b6000604051905090565b600067ffffffffffffffff821115610fe357610fe26113aa565b5b610fec826113d9565b9050602081019050919050565b6000819050602082019050919050565b600081519050919050565b600081519050919050565b6000602082019050919050565b600082825260208201905092915050565b600082825260208201905092915050565b600082825260208201905092915050565b600081905092915050565b60006110758261123d565b91506110808361123d565b9250827fffffffffffffffffffffffffffffffffffffffffffffffffffffffffffffffff038211156110b5576110b461131d565b5b828201905092915050565b6000808291508390505b600185111561110a578086048111156110e6576110e561131d565b5b60018516156110f55780820291505b8081029050611103856113ea565b94506110ca565b94509492505050565b600061111e8261123d565b91506111298361123d565b92506111567fffffffffffffffffffffffffffffffffffffffffffffffffffffffffffffffff848461115e565b905092915050565b60008261116e576001905061122a565b8161117c576000905061122a565b8160018114611192576002811461119c576111cb565b600191505061122a565b60ff8411156111ae576111ad61131d565b5b8360020a9150848211156111c5576111c461131d565b5b5061122a565b5060208310610133831016604e8410600b84101617156112005782820a9050838111156111fb576111fa61131d565b5b61122a565b61120d84848460016110c0565b925090508184048111156112245761122361131d565b5b81810290505b9392505050565b60008115159050919050565b6000819050919050565b82818337600083830152505050565b60005b83811015611274578082015181840152602081019050611259565b83811115611283576000848401525b50505050565b600060028204905060018216806112a157607f821691505b602082108114156112b5576112b461137b565b5b50919050565b6112c4826113d9565b810181811067ffffffffffffffff821117156112e3576112e26113aa565b5b80604052505050565b60006112f78261123d565b91506113028361123d565b9250826113125761131161134c565b5b828206905092915050565b7f4e487b7100000000000000000000000000000000000000000000000000000000600052601160045260246000fd5b7f4e487b7100000000000000000000000000000000000000000000000000000000600052601260045260246000fd5b7f4e487b7100000000000000000000000000000000000000000000000000000000600052602260045260246000fd5b7f4e487b7100000000000000000000000000000000000000000000000000000000600052604160045260246000fd5b6000601f19601f8301169050919050565b60008160011c9050919050565b6114008161123d565b811461140b57600080fd5b5056fea26469706673582212205724c966e29a8873e82c4a3722fc075d171080951c8020690efe7db9d781020764736f6c63430008040033",
			"opcodes": "PUSH1 0x80 PUSH1 0x40 MSTORE CALLVALUE DUP1 ISZERO PUSH2 0x10 JUMPI PUSH1 0x0 DUP1 REVERT JUMPDEST POP PUSH1 0x40 MLOAD DUP1 PUSH1 0x40 ADD PUSH1 0x40 MSTORE DUP1 PUSH1 0x5 DUP2 MSTORE PUSH1 0x20 ADD PUSH1 0x23 DUP2 MSTORE POP PUSH1 0x2 PUSH1 0x40 MLOAD PUSH2 0x36 SWAP1 PUSH2 0x83 JUMP JUMPDEST SWAP1 DUP2 MSTORE PUSH1 0x20 ADD PUSH1 0x40 MLOAD DUP1 SWAP2 SUB SWAP1 KECCAK256 PUSH1 0x0 DUP3 ADD MLOAD DUP2 PUSH1 0x0 ADD SSTORE PUSH1 0x20 DUP3 ADD MLOAD DUP2 PUSH1 0x1 ADD SSTORE SWAP1 POP POP PUSH2 0xCC JUMP JUMPDEST PUSH1 0x0 PUSH2 0x6D PUSH1 0x9 DUP4 PUSH2 0x98 JUMP JUMPDEST SWAP2 POP PUSH2 0x78 DUP3 PUSH2 0xA3 JUMP JUMPDEST PUSH1 0x9 DUP3 ADD SWAP1 POP SWAP2 SWAP1 POP JUMP JUMPDEST PUSH1 0x0 PUSH2 0x8E DUP3 PUSH2 0x60 JUMP JUMPDEST SWAP2 POP DUP2 SWAP1 POP SWAP2 SWAP1 POP JUMP JUMPDEST PUSH1 0x0 DUP2 SWAP1 POP SWAP3 SWAP2 POP POP JUMP JUMPDEST PUSH32 0x53696E6761706F72650000000000000000000000000000000000000000000000 PUSH1 0x0 DUP3 ADD MSTORE POP JUMP JUMPDEST PUSH2 0x1444 DUP1 PUSH2 0xDB PUSH1 0x0 CODECOPY PUSH1 0x0 RETURN INVALID PUSH1 0x80 PUSH1 0x40 MSTORE PUSH1 0x4 CALLDATASIZE LT PUSH2 0x7B JUMPI PUSH1 0x0 CALLDATALOAD PUSH1 0xE0 SHR DUP1 PUSH4 0x2E2F6232 GT PUSH2 0x4E JUMPI DUP1 PUSH4 0x2E2F6232 EQ PUSH2 0x164 JUMPI DUP1 PUSH4 0x30F53F5B EQ PUSH2 0x194 JUMPI DUP1 PUSH4 0x3E974073 EQ PUSH2 0x1BD JUMPI DUP1 PUSH4 0x8F88708B EQ PUSH2 0x1FA JUMPI PUSH2 0x7B JUMP JUMPDEST DUP1 PUSH4 0x24A9FEE EQ PUSH2 0x80 JUMPI DUP1 PUSH4 0xD4BF50D EQ PUSH2 0xBD JUMPI DUP1 PUSH4 0xDE0433A EQ PUSH2 0xE8 JUMPI DUP1 PUSH4 0x1C6A73AE EQ PUSH2 0x125 JUMPI JUMPDEST PUSH1 0x0 DUP1 REVERT JUMPDEST CALLVALUE DUP1 ISZERO PUSH2 0x8C JUMPI PUSH1 0x0 DUP1 REVERT JUMPDEST POP PUSH2 0xA7 PUSH1 0x4 DUP1 CALLDATASIZE SUB DUP2 ADD SWAP1 PUSH2 0xA2 SWAP2 SWAP1 PUSH2 0xC22 JUMP JUMPDEST PUSH2 0x23A JUMP JUMPDEST PUSH1 0x40 MLOAD PUSH2 0xB4 SWAP2 SWAP1 PUSH2 0xEC1 JUMP JUMPDEST PUSH1 0x40 MLOAD DUP1 SWAP2 SUB SWAP1 RETURN JUMPDEST CALLVALUE DUP1 ISZERO PUSH2 0xC9 JUMPI PUSH1 0x0 DUP1 REVERT JUMPDEST POP PUSH2 0xD2 PUSH2 0x271 JUMP JUMPDEST PUSH1 0x40 MLOAD PUSH2 0xDF SWAP2 SWAP1 PUSH2 0xE9F JUMP JUMPDEST PUSH1 0x40 MLOAD DUP1 SWAP2 SUB SWAP1 RETURN JUMPDEST CALLVALUE DUP1 ISZERO PUSH2 0xF4 JUMPI PUSH1 0x0 DUP1 REVERT JUMPDEST POP PUSH2 0x10F PUSH1 0x4 DUP1 CALLDATASIZE SUB DUP2 ADD SWAP1 PUSH2 0x10A SWAP2 SWAP1 PUSH2 0xCB1 JUMP JUMPDEST PUSH2 0x34A JUMP JUMPDEST PUSH1 0x40 MLOAD PUSH2 0x11C SWAP2 SWAP1 PUSH2 0xF35 JUMP JUMPDEST PUSH1 0x40 MLOAD DUP1 SWAP2 SUB SWAP1 RETURN JUMPDEST CALLVALUE DUP1 ISZERO PUSH2 0x131 JUMPI PUSH1 0x0 DUP1 REVERT JUMPDEST POP PUSH2 0x14C PUSH1 0x4 DUP1 CALLDATASIZE SUB DUP2 ADD SWAP1 PUSH2 0x147 SWAP2 SWAP1 PUSH2 0xA31 JUMP JUMPDEST PUSH2 0x36C JUMP JUMPDEST PUSH1 0x40 MLOAD PUSH2 0x15B SWAP4 SWAP3 SWAP2 SWAP1 PUSH2 0xEDC JUMP JUMPDEST PUSH1 0x40 MLOAD DUP1 SWAP2 SUB SWAP1 RETURN JUMPDEST PUSH2 0x17E PUSH1 0x4 DUP1 CALLDATASIZE SUB DUP2 ADD SWAP1 PUSH2 0x179 SWAP2 SWAP1 PUSH2 0xB69 JUMP JUMPDEST PUSH2 0x46F JUMP JUMPDEST PUSH1 0x40 MLOAD PUSH2 0x18B SWAP2 SWAP1 PUSH2 0xEC1 JUMP JUMPDEST PUSH1 0x40 MLOAD DUP1 SWAP2 SUB SWAP1 RETURN JUMPDEST CALLVALUE DUP1 ISZERO PUSH2 0x1A0 JUMPI PUSH1 0x0 DUP1 REVERT JUMPDEST POP PUSH2 0x1BB PUSH1 0x4 DUP1 CALLDATASIZE SUB DUP2 ADD SWAP1 PUSH2 0x1B6 SWAP2 SWAP1 PUSH2 0xA72 JUMP JUMPDEST PUSH2 0x623 JUMP JUMPDEST STOP JUMPDEST CALLVALUE DUP1 ISZERO PUSH2 0x1C9 JUMPI PUSH1 0x0 DUP1 REVERT JUMPDEST POP PUSH2 0x1E4 PUSH1 0x4 DUP1 CALLDATASIZE SUB DUP2 ADD SWAP1 PUSH2 0x1DF SWAP2 SWAP1 PUSH2 0xB02 JUMP JUMPDEST PUSH2 0x6D1 JUMP JUMPDEST PUSH1 0x40 MLOAD PUSH2 0x1F1 SWAP2 SWAP1 PUSH2 0xF1A JUMP JUMPDEST PUSH1 0x40 MLOAD DUP1 SWAP2 SUB SWAP1 RETURN JUMPDEST CALLVALUE DUP1 ISZERO PUSH2 0x206 JUMPI PUSH1 0x0 DUP1 REVERT JUMPDEST POP PUSH2 0x221 PUSH1 0x4 DUP1 CALLDATASIZE SUB DUP2 ADD SWAP1 PUSH2 0x21C SWAP2 SWAP1 PUSH2 0xAD9 JUMP JUMPDEST PUSH2 0x76F JUMP JUMPDEST PUSH1 0x40 MLOAD PUSH2 0x231 SWAP5 SWAP4 SWAP3 SWAP2 SWAP1 PUSH2 0xF50 JUMP JUMPDEST PUSH1 0x40 MLOAD DUP1 SWAP2 SUB SWAP1 RETURN JUMPDEST PUSH1 0x0 DUP1 PUSH2 0x248 DUP5 DUP5 DUP8 PUSH2 0x6D1 JUMP JUMPDEST SWAP1 POP PUSH1 0x0 PUSH2 0x25F DUP9 DUP4 PUSH1 0x0 ADD MLOAD DUP5 PUSH1 0x20 ADD MLOAD PUSH2 0x34A JUMP JUMPDEST SWAP1 POP DUP7 DUP2 EQ SWAP3 POP POP POP SWAP6 SWAP5 POP POP POP POP POP JUMP JUMPDEST PUSH1 0x60 PUSH1 0x3 DUP1 SLOAD DUP1 PUSH1 0x20 MUL PUSH1 0x20 ADD PUSH1 0x40 MLOAD SWAP1 DUP2 ADD PUSH1 0x40 MSTORE DUP1 SWAP3 SWAP2 SWAP1 DUP2 DUP2 MSTORE PUSH1 0x20 ADD PUSH1 0x0 SWAP1 JUMPDEST DUP3 DUP3 LT ISZERO PUSH2 0x341 JUMPI DUP4 DUP3 SWAP1 PUSH1 0x0 MSTORE PUSH1 0x20 PUSH1 0x0 KECCAK256 ADD DUP1 SLOAD PUSH2 0x2B4 SWAP1 PUSH2 0x1289 JUMP JUMPDEST DUP1 PUSH1 0x1F ADD PUSH1 0x20 DUP1 SWAP2 DIV MUL PUSH1 0x20 ADD PUSH1 0x40 MLOAD SWAP1 DUP2 ADD PUSH1 0x40 MSTORE DUP1 SWAP3 SWAP2 SWAP1 DUP2 DUP2 MSTORE PUSH1 0x20 ADD DUP3 DUP1 SLOAD PUSH2 0x2E0 SWAP1 PUSH2 0x1289 JUMP JUMPDEST DUP1 ISZERO PUSH2 0x32D JUMPI DUP1 PUSH1 0x1F LT PUSH2 0x302 JUMPI PUSH2 0x100 DUP1 DUP4 SLOAD DIV MUL DUP4 MSTORE SWAP2 PUSH1 0x20 ADD SWAP2 PUSH2 0x32D JUMP JUMPDEST DUP3 ADD SWAP2 SWAP1 PUSH1 0x0 MSTORE PUSH1 0x20 PUSH1 0x0 KECCAK256 SWAP1 JUMPDEST DUP2 SLOAD DUP2 MSTORE SWAP1 PUSH1 0x1 ADD SWAP1 PUSH1 0x20 ADD DUP1 DUP4 GT PUSH2 0x310 JUMPI DUP3 SWAP1 SUB PUSH1 0x1F AND DUP3 ADD SWAP2 JUMPDEST POP POP POP POP POP DUP2 MSTORE PUSH1 0x20 ADD SWAP1 PUSH1 0x1 ADD SWAP1 PUSH2 0x295 JUMP JUMPDEST POP POP POP POP SWAP1 POP SWAP1 JUMP JUMPDEST PUSH1 0x0 DUP2 DUP4 DUP6 PUSH2 0x359 SWAP2 SWAP1 PUSH2 0x1113 JUMP JUMPDEST PUSH2 0x363 SWAP2 SWAP1 PUSH2 0x12EC JUMP JUMPDEST SWAP1 POP SWAP4 SWAP3 POP POP POP JUMP JUMPDEST PUSH1 0x60 PUSH1 0x0 DUP1 PUSH1 0x4 DUP5 PUSH1 0x40 MLOAD PUSH2 0x381 SWAP2 SWAP1 PUSH2 0xE88 JUMP JUMPDEST SWAP1 DUP2 MSTORE PUSH1 0x20 ADD PUSH1 0x40 MLOAD DUP1 SWAP2 SUB SWAP1 KECCAK256 PUSH1 0x0 ADD PUSH1 0x4 DUP6 PUSH1 0x40 MLOAD PUSH2 0x3A2 SWAP2 SWAP1 PUSH2 0xE88 JUMP JUMPDEST SWAP1 DUP2 MSTORE PUSH1 0x20 ADD PUSH1 0x40 MLOAD DUP1 SWAP2 SUB SWAP1 KECCAK256 PUSH1 0x1 ADD SLOAD PUSH1 0x4 DUP7 PUSH1 0x40 MLOAD PUSH2 0x3C4 SWAP2 SWAP1 PUSH2 0xE88 JUMP JUMPDEST SWAP1 DUP2 MSTORE PUSH1 0x20 ADD PUSH1 0x40 MLOAD DUP1 SWAP2 SUB SWAP1 KECCAK256 PUSH1 0x2 ADD SLOAD DUP3 DUP1 SLOAD PUSH2 0x3E2 SWAP1 PUSH2 0x1289 JUMP JUMPDEST DUP1 PUSH1 0x1F ADD PUSH1 0x20 DUP1 SWAP2 DIV MUL PUSH1 0x20 ADD PUSH1 0x40 MLOAD SWAP1 DUP2 ADD PUSH1 0x40 MSTORE DUP1 SWAP3 SWAP2 SWAP1 DUP2 DUP2 MSTORE PUSH1 0x20 ADD DUP3 DUP1 SLOAD PUSH2 0x40E SWAP1 PUSH2 0x1289 JUMP JUMPDEST DUP1 ISZERO PUSH2 0x45B JUMPI DUP1 PUSH1 0x1F LT PUSH2 0x430 JUMPI PUSH2 0x100 DUP1 DUP4 SLOAD DIV MUL DUP4 MSTORE SWAP2 PUSH1 0x20 ADD SWAP2 PUSH2 0x45B JUMP JUMPDEST DUP3 ADD SWAP2 SWAP1 PUSH1 0x0 MSTORE PUSH1 0x20 PUSH1 0x0 KECCAK256 SWAP1 JUMPDEST DUP2 SLOAD DUP2 MSTORE SWAP1 PUSH1 0x1 ADD SWAP1 PUSH1 0x20 ADD DUP1 DUP4 GT PUSH2 0x43E JUMPI DUP3 SWAP1 SUB PUSH1 0x1F AND DUP3 ADD SWAP2 JUMPDEST POP POP POP POP POP SWAP3 POP SWAP3 POP SWAP3 POP SWAP3 POP SWAP2 SWAP4 SWAP1 SWAP3 POP JUMP JUMPDEST PUSH1 0x0 PUSH2 0x47E DUP8 DUP8 DUP7 DUP7 DUP7 PUSH2 0x23A JUMP JUMPDEST ISZERO PUSH2 0x614 JUMPI PUSH1 0x0 DUP7 SWAP1 DUP1 PUSH1 0x1 DUP2 SLOAD ADD DUP1 DUP3 SSTORE DUP1 SWAP2 POP POP PUSH1 0x1 SWAP1 SUB SWAP1 PUSH1 0x0 MSTORE PUSH1 0x20 PUSH1 0x0 KECCAK256 ADD PUSH1 0x0 SWAP1 SWAP2 SWAP1 SWAP2 SWAP1 SWAP2 POP SSTORE PUSH1 0x40 MLOAD DUP1 PUSH1 0x80 ADD PUSH1 0x40 MSTORE DUP1 DUP8 DUP2 MSTORE PUSH1 0x20 ADD DUP7 DUP2 MSTORE PUSH1 0x20 ADD DUP6 DUP2 MSTORE PUSH1 0x20 ADD TIMESTAMP DUP2 MSTORE POP PUSH1 0x1 PUSH1 0x0 DUP9 DUP2 MSTORE PUSH1 0x20 ADD SWAP1 DUP2 MSTORE PUSH1 0x20 ADD PUSH1 0x0 KECCAK256 PUSH1 0x0 DUP3 ADD MLOAD DUP2 PUSH1 0x0 ADD SSTORE PUSH1 0x20 DUP3 ADD MLOAD DUP2 PUSH1 0x1 ADD SWAP1 DUP1 MLOAD SWAP1 PUSH1 0x20 ADD SWAP1 PUSH2 0x506 SWAP3 SWAP2 SWAP1 PUSH2 0x8F7 JUMP JUMPDEST POP PUSH1 0x40 DUP3 ADD MLOAD DUP2 PUSH1 0x2 ADD SWAP1 DUP1 MLOAD SWAP1 PUSH1 0x20 ADD SWAP1 PUSH2 0x523 SWAP3 SWAP2 SWAP1 PUSH2 0x8F7 JUMP JUMPDEST POP PUSH1 0x60 DUP3 ADD MLOAD DUP2 PUSH1 0x3 ADD SSTORE SWAP1 POP POP PUSH1 0x0 PUSH1 0x4 DUP6 PUSH1 0x40 MLOAD PUSH2 0x543 SWAP2 SWAP1 PUSH2 0xE88 JUMP JUMPDEST SWAP1 DUP2 MSTORE PUSH1 0x20 ADD PUSH1 0x40 MLOAD DUP1 SWAP2 SUB SWAP1 KECCAK256 PUSH1 0x1 ADD SLOAD EQ ISZERO PUSH2 0x5D1 JUMPI PUSH1 0x40 MLOAD DUP1 PUSH1 0x60 ADD PUSH1 0x40 MSTORE DUP1 DUP6 DUP2 MSTORE PUSH1 0x20 ADD PUSH3 0x989680 DUP2 MSTORE PUSH1 0x20 ADD PUSH1 0x1 DUP2 MSTORE POP PUSH1 0x4 DUP6 PUSH1 0x40 MLOAD PUSH2 0x58A SWAP2 SWAP1 PUSH2 0xE88 JUMP JUMPDEST SWAP1 DUP2 MSTORE PUSH1 0x20 ADD PUSH1 0x40 MLOAD DUP1 SWAP2 SUB SWAP1 KECCAK256 PUSH1 0x0 DUP3 ADD MLOAD DUP2 PUSH1 0x0 ADD SWAP1 DUP1 MLOAD SWAP1 PUSH1 0x20 ADD SWAP1 PUSH2 0x5B4 SWAP3 SWAP2 SWAP1 PUSH2 0x8F7 JUMP JUMPDEST POP PUSH1 0x20 DUP3 ADD MLOAD DUP2 PUSH1 0x1 ADD SSTORE PUSH1 0x40 DUP3 ADD MLOAD DUP2 PUSH1 0x2 ADD SSTORE SWAP1 POP POP PUSH2 0x60B JUMP JUMPDEST PUSH1 0x1 PUSH1 0x4 DUP6 PUSH1 0x40 MLOAD PUSH2 0x5E3 SWAP2 SWAP1 PUSH2 0xE88 JUMP JUMPDEST SWAP1 DUP2 MSTORE PUSH1 0x20 ADD PUSH1 0x40 MLOAD DUP1 SWAP2 SUB SWAP1 KECCAK256 PUSH1 0x2 ADD PUSH1 0x0 DUP3 DUP3 SLOAD PUSH2 0x603 SWAP2 SWAP1 PUSH2 0x106A JUMP JUMPDEST SWAP3 POP POP DUP2 SWAP1 SSTORE POP JUMPDEST PUSH1 0x1 SWAP1 POP PUSH2 0x619 JUMP JUMPDEST PUSH1 0x0 SWAP1 POP JUMPDEST SWAP7 SWAP6 POP POP POP POP POP POP JUMP JUMPDEST PUSH1 0x40 MLOAD DUP1 PUSH1 0x60 ADD PUSH1 0x40 MSTORE DUP1 DUP5 DUP2 MSTORE PUSH1 0x20 ADD DUP4 DUP2 MSTORE PUSH1 0x20 ADD DUP3 DUP2 MSTORE POP PUSH1 0x4 DUP5 PUSH1 0x40 MLOAD PUSH2 0x64E SWAP2 SWAP1 PUSH2 0xE88 JUMP JUMPDEST SWAP1 DUP2 MSTORE PUSH1 0x20 ADD PUSH1 0x40 MLOAD DUP1 SWAP2 SUB SWAP1 KECCAK256 PUSH1 0x0 DUP3 ADD MLOAD DUP2 PUSH1 0x0 ADD SWAP1 DUP1 MLOAD SWAP1 PUSH1 0x20 ADD SWAP1 PUSH2 0x678 SWAP3 SWAP2 SWAP1 PUSH2 0x8F7 JUMP JUMPDEST POP PUSH1 0x20 DUP3 ADD MLOAD DUP2 PUSH1 0x1 ADD SSTORE PUSH1 0x40 DUP3 ADD MLOAD DUP2 PUSH1 0x2 ADD SSTORE SWAP1 POP POP PUSH1 0x3 DUP4 SWAP1 DUP1 PUSH1 0x1 DUP2 SLOAD ADD DUP1 DUP3 SSTORE DUP1 SWAP2 POP POP PUSH1 0x1 SWAP1 SUB SWAP1 PUSH1 0x0 MSTORE PUSH1 0x20 PUSH1 0x0 KECCAK256 ADD PUSH1 0x0 SWAP1 SWAP2 SWAP1 SWAP2 SWAP1 SWAP2 POP SWAP1 DUP1 MLOAD SWAP1 PUSH1 0x20 ADD SWAP1 PUSH2 0x6CB SWAP3 SWAP2 SWAP1 PUSH2 0x8F7 JUMP JUMPDEST POP POP POP POP JUMP JUMPDEST PUSH2 0x6D9 PUSH2 0x97D JUMP JUMPDEST PUSH1 0x0 PUSH1 0x2 DUP4 PUSH1 0x40 MLOAD PUSH2 0x6EB SWAP2 SWAP1 PUSH2 0xE88 JUMP JUMPDEST SWAP1 DUP2 MSTORE PUSH1 0x20 ADD PUSH1 0x40 MLOAD DUP1 SWAP2 SUB SWAP1 KECCAK256 PUSH1 0x40 MLOAD DUP1 PUSH1 0x40 ADD PUSH1 0x40 MSTORE SWAP1 DUP2 PUSH1 0x0 DUP3 ADD SLOAD DUP2 MSTORE PUSH1 0x20 ADD PUSH1 0x1 DUP3 ADD SLOAD DUP2 MSTORE POP POP SWAP1 POP PUSH1 0x0 PUSH2 0x72F DUP7 DUP4 PUSH1 0x0 ADD MLOAD DUP5 PUSH1 0x20 ADD MLOAD PUSH2 0x34A JUMP JUMPDEST SWAP1 POP PUSH1 0x0 PUSH2 0x746 DUP7 DUP5 PUSH1 0x0 ADD MLOAD DUP6 PUSH1 0x20 ADD MLOAD PUSH2 0x34A JUMP JUMPDEST SWAP1 POP PUSH1 0x0 PUSH1 0x40 MLOAD DUP1 PUSH1 0x40 ADD PUSH1 0x40 MSTORE DUP1 DUP5 DUP2 MSTORE PUSH1 0x20 ADD DUP4 DUP2 MSTORE POP SWAP1 POP DUP1 SWAP5 POP POP POP POP POP SWAP4 SWAP3 POP POP POP JUMP JUMPDEST PUSH1 0x0 PUSH1 0x60 DUP1 PUSH1 0x0 PUSH1 0x1 PUSH1 0x0 DUP7 DUP2 MSTORE PUSH1 0x20 ADD SWAP1 DUP2 MSTORE PUSH1 0x20 ADD PUSH1 0x0 KECCAK256 PUSH1 0x0 ADD SLOAD PUSH1 0x1 PUSH1 0x0 DUP8 DUP2 MSTORE PUSH1 0x20 ADD SWAP1 DUP2 MSTORE PUSH1 0x20 ADD PUSH1 0x0 KECCAK256 PUSH1 0x1 ADD PUSH1 0x1 PUSH1 0x0 DUP9 DUP2 MSTORE PUSH1 0x20 ADD SWAP1 DUP2 MSTORE PUSH1 0x20 ADD PUSH1 0x0 KECCAK256 PUSH1 0x2 ADD PUSH1 0x1 PUSH1 0x0 DUP10 DUP2 MSTORE PUSH1 0x20 ADD SWAP1 DUP2 MSTORE PUSH1 0x20 ADD PUSH1 0x0 KECCAK256 PUSH1 0x3 ADD SLOAD DUP3 DUP1 SLOAD PUSH2 0x7DC SWAP1 PUSH2 0x1289 JUMP JUMPDEST DUP1 PUSH1 0x1F ADD PUSH1 0x20 DUP1 SWAP2 DIV MUL PUSH1 0x20 ADD PUSH1 0x40 MLOAD SWAP1 DUP2 ADD PUSH1 0x40 MSTORE DUP1 SWAP3 SWAP2 SWAP1 DUP2 DUP2 MSTORE PUSH1 0x20 ADD DUP3 DUP1 SLOAD PUSH2 0x808 SWAP1 PUSH2 0x1289 JUMP JUMPDEST DUP1 ISZERO PUSH2 0x855 JUMPI DUP1 PUSH1 0x1F LT PUSH2 0x82A JUMPI PUSH2 0x100 DUP1 DUP4 SLOAD DIV MUL DUP4 MSTORE SWAP2 PUSH1 0x20 ADD SWAP2 PUSH2 0x855 JUMP JUMPDEST DUP3 ADD SWAP2 SWAP1 PUSH1 0x0 MSTORE PUSH1 0x20 PUSH1 0x0 KECCAK256 SWAP1 JUMPDEST DUP2 SLOAD DUP2 MSTORE SWAP1 PUSH1 0x1 ADD SWAP1 PUSH1 0x20 ADD DUP1 DUP4 GT PUSH2 0x838 JUMPI DUP3 SWAP1 SUB PUSH1 0x1F AND DUP3 ADD SWAP2 JUMPDEST POP POP POP POP POP SWAP3 POP DUP2 DUP1 SLOAD PUSH2 0x868 SWAP1 PUSH2 0x1289 JUMP JUMPDEST DUP1 PUSH1 0x1F ADD PUSH1 0x20 DUP1 SWAP2 DIV MUL PUSH1 0x20 ADD PUSH1 0x40 MLOAD SWAP1 DUP2 ADD PUSH1 0x40 MSTORE DUP1 SWAP3 SWAP2 SWAP1 DUP2 DUP2 MSTORE PUSH1 0x20 ADD DUP3 DUP1 SLOAD PUSH2 0x894 SWAP1 PUSH2 0x1289 JUMP JUMPDEST DUP1 ISZERO PUSH2 0x8E1 JUMPI DUP1 PUSH1 0x1F LT PUSH2 0x8B6 JUMPI PUSH2 0x100 DUP1 DUP4 SLOAD DIV MUL DUP4 MSTORE SWAP2 PUSH1 0x20 ADD SWAP2 PUSH2 0x8E1 JUMP JUMPDEST DUP3 ADD SWAP2 SWAP1 PUSH1 0x0 MSTORE PUSH1 0x20 PUSH1 0x0 KECCAK256 SWAP1 JUMPDEST DUP2 SLOAD DUP2 MSTORE SWAP1 PUSH1 0x1 ADD SWAP1 PUSH1 0x20 ADD DUP1 DUP4 GT PUSH2 0x8C4 JUMPI DUP3 SWAP1 SUB PUSH1 0x1F AND DUP3 ADD SWAP2 JUMPDEST POP POP POP POP POP SWAP2 POP SWAP4 POP SWAP4 POP SWAP4 POP SWAP4 POP SWAP2 SWAP4 POP SWAP2 SWAP4 JUMP JUMPDEST DUP3 DUP1 SLOAD PUSH2 0x903 SWAP1 PUSH2 0x1289 JUMP JUMPDEST SWAP1 PUSH1 0x0 MSTORE PUSH1 0x20 PUSH1 0x0 KECCAK256 SWAP1 PUSH1 0x1F ADD PUSH1 0x20 SWAP1 DIV DUP2 ADD SWAP3 DUP3 PUSH2 0x925 JUMPI PUSH1 0x0 DUP6 SSTORE PUSH2 0x96C JUMP JUMPDEST DUP3 PUSH1 0x1F LT PUSH2 0x93E JUMPI DUP1 MLOAD PUSH1 0xFF NOT AND DUP4 DUP1 ADD OR DUP6 SSTORE PUSH2 0x96C JUMP JUMPDEST DUP3 DUP1 ADD PUSH1 0x1 ADD DUP6 SSTORE DUP3 ISZERO PUSH2 0x96C JUMPI SWAP2 DUP3 ADD JUMPDEST DUP3 DUP2 GT ISZERO PUSH2 0x96B JUMPI DUP3 MLOAD DUP3 SSTORE SWAP2 PUSH1 0x20 ADD SWAP2 SWAP1 PUSH1 0x1 ADD SWAP1 PUSH2 0x950 JUMP JUMPDEST JUMPDEST POP SWAP1 POP PUSH2 0x979 SWAP2 SWAP1 PUSH2 0x997 JUMP JUMPDEST POP SWAP1 JUMP JUMPDEST PUSH1 0x40 MLOAD DUP1 PUSH1 0x40 ADD PUSH1 0x40 MSTORE DUP1 PUSH1 0x0 DUP2 MSTORE PUSH1 0x20 ADD PUSH1 0x0 DUP2 MSTORE POP SWAP1 JUMP JUMPDEST JUMPDEST DUP1 DUP3 GT ISZERO PUSH2 0x9B0 JUMPI PUSH1 0x0 DUP2 PUSH1 0x0 SWAP1 SSTORE POP PUSH1 0x1 ADD PUSH2 0x998 JUMP JUMPDEST POP SWAP1 JUMP JUMPDEST PUSH1 0x0 PUSH2 0x9C7 PUSH2 0x9C2 DUP5 PUSH2 0xFC8 JUMP JUMPDEST PUSH2 0xFA3 JUMP JUMPDEST SWAP1 POP DUP3 DUP2 MSTORE PUSH1 0x20 DUP2 ADD DUP5 DUP5 DUP5 ADD GT ISZERO PUSH2 0x9DF JUMPI PUSH1 0x0 DUP1 REVERT JUMPDEST PUSH2 0x9EA DUP5 DUP3 DUP6 PUSH2 0x1247 JUMP JUMPDEST POP SWAP4 SWAP3 POP POP POP JUMP JUMPDEST PUSH1 0x0 DUP3 PUSH1 0x1F DUP4 ADD SLT PUSH2 0xA03 JUMPI PUSH1 0x0 DUP1 REVERT JUMPDEST DUP2 CALLDATALOAD PUSH2 0xA13 DUP5 DUP3 PUSH1 0x20 DUP7 ADD PUSH2 0x9B4 JUMP JUMPDEST SWAP2 POP POP SWAP3 SWAP2 POP POP JUMP JUMPDEST PUSH1 0x0 DUP2 CALLDATALOAD SWAP1 POP PUSH2 0xA2B DUP2 PUSH2 0x13F7 JUMP JUMPDEST SWAP3 SWAP2 POP POP JUMP JUMPDEST PUSH1 0x0 PUSH1 0x20 DUP3 DUP5 SUB SLT ISZERO PUSH2 0xA43 JUMPI PUSH1 0x0 DUP1 REVERT JUMPDEST PUSH1 0x0 DUP3 ADD CALLDATALOAD PUSH8 0xFFFFFFFFFFFFFFFF DUP2 GT ISZERO PUSH2 0xA5D JUMPI PUSH1 0x0 DUP1 REVERT JUMPDEST PUSH2 0xA69 DUP5 DUP3 DUP6 ADD PUSH2 0x9F2 JUMP JUMPDEST SWAP2 POP POP SWAP3 SWAP2 POP POP JUMP JUMPDEST PUSH1 0x0 DUP1 PUSH1 0x0 PUSH1 0x60 DUP5 DUP7 SUB SLT ISZERO PUSH2 0xA87 JUMPI PUSH1 0x0 DUP1 REVERT JUMPDEST PUSH1 0x0 DUP5 ADD CALLDATALOAD PUSH8 0xFFFFFFFFFFFFFFFF DUP2 GT ISZERO PUSH2 0xAA1 JUMPI PUSH1 0x0 DUP1 REVERT JUMPDEST PUSH2 0xAAD DUP7 DUP3 DUP8 ADD PUSH2 0x9F2 JUMP JUMPDEST SWAP4 POP POP PUSH1 0x20 PUSH2 0xABE DUP7 DUP3 DUP8 ADD PUSH2 0xA1C JUMP JUMPDEST SWAP3 POP POP PUSH1 0x40 PUSH2 0xACF DUP7 DUP3 DUP8 ADD PUSH2 0xA1C JUMP JUMPDEST SWAP2 POP POP SWAP3 POP SWAP3 POP SWAP3 JUMP JUMPDEST PUSH1 0x0 PUSH1 0x20 DUP3 DUP5 SUB SLT ISZERO PUSH2 0xAEB JUMPI PUSH1 0x0 DUP1 REVERT JUMPDEST PUSH1 0x0 PUSH2 0xAF9 DUP5 DUP3 DUP6 ADD PUSH2 0xA1C JUMP JUMPDEST SWAP2 POP POP SWAP3 SWAP2 POP POP JUMP JUMPDEST PUSH1 0x0 DUP1 PUSH1 0x0 PUSH1 0x60 DUP5 DUP7 SUB SLT ISZERO PUSH2 0xB17 JUMPI PUSH1 0x0 DUP1 REVERT JUMPDEST PUSH1 0x0 PUSH2 0xB25 DUP7 DUP3 DUP8 ADD PUSH2 0xA1C JUMP JUMPDEST SWAP4 POP POP PUSH1 0x20 PUSH2 0xB36 DUP7 DUP3 DUP8 ADD PUSH2 0xA1C JUMP JUMPDEST SWAP3 POP POP PUSH1 0x40 DUP5 ADD CALLDATALOAD PUSH8 0xFFFFFFFFFFFFFFFF DUP2 GT ISZERO PUSH2 0xB53 JUMPI PUSH1 0x0 DUP1 REVERT JUMPDEST PUSH2 0xB5F DUP7 DUP3 DUP8 ADD PUSH2 0x9F2 JUMP JUMPDEST SWAP2 POP POP SWAP3 POP SWAP3 POP SWAP3 JUMP JUMPDEST PUSH1 0x0 DUP1 PUSH1 0x0 DUP1 PUSH1 0x0 DUP1 PUSH1 0xC0 DUP8 DUP10 SUB SLT ISZERO PUSH2 0xB82 JUMPI PUSH1 0x0 DUP1 REVERT JUMPDEST PUSH1 0x0 PUSH2 0xB90 DUP10 DUP3 DUP11 ADD PUSH2 0xA1C JUMP JUMPDEST SWAP7 POP POP PUSH1 0x20 PUSH2 0xBA1 DUP10 DUP3 DUP11 ADD PUSH2 0xA1C JUMP JUMPDEST SWAP6 POP POP PUSH1 0x40 DUP8 ADD CALLDATALOAD PUSH8 0xFFFFFFFFFFFFFFFF DUP2 GT ISZERO PUSH2 0xBBE JUMPI PUSH1 0x0 DUP1 REVERT JUMPDEST PUSH2 0xBCA DUP10 DUP3 DUP11 ADD PUSH2 0x9F2 JUMP JUMPDEST SWAP5 POP POP PUSH1 0x60 DUP8 ADD CALLDATALOAD PUSH8 0xFFFFFFFFFFFFFFFF DUP2 GT ISZERO PUSH2 0xBE7 JUMPI PUSH1 0x0 DUP1 REVERT JUMPDEST PUSH2 0xBF3 DUP10 DUP3 DUP11 ADD PUSH2 0x9F2 JUMP JUMPDEST SWAP4 POP POP PUSH1 0x80 PUSH2 0xC04 DUP10 DUP3 DUP11 ADD PUSH2 0xA1C JUMP JUMPDEST SWAP3 POP POP PUSH1 0xA0 PUSH2 0xC15 DUP10 DUP3 DUP11 ADD PUSH2 0xA1C JUMP JUMPDEST SWAP2 POP POP SWAP3 SWAP6 POP SWAP3 SWAP6 POP SWAP3 SWAP6 JUMP JUMPDEST PUSH1 0x0 DUP1 PUSH1 0x0 DUP1 PUSH1 0x0 PUSH1 0xA0 DUP7 DUP9 SUB SLT ISZERO PUSH2 0xC3A JUMPI PUSH1 0x0 DUP1 REVERT JUMPDEST PUSH1 0x0 PUSH2 0xC48 DUP9 DUP3 DUP10 ADD PUSH2 0xA1C JUMP JUMPDEST SWAP6 POP POP PUSH1 0x20 PUSH2 0xC59 DUP9 DUP3 DUP10 ADD PUSH2 0xA1C JUMP JUMPDEST SWAP5 POP POP PUSH1 0x40 DUP7 ADD CALLDATALOAD PUSH8 0xFFFFFFFFFFFFFFFF DUP2 GT ISZERO PUSH2 0xC76 JUMPI PUSH1 0x0 DUP1 REVERT JUMPDEST PUSH2 0xC82 DUP9 DUP3 DUP10 ADD PUSH2 0x9F2 JUMP JUMPDEST SWAP4 POP POP PUSH1 0x60 PUSH2 0xC93 DUP9 DUP3 DUP10 ADD PUSH2 0xA1C JUMP JUMPDEST SWAP3 POP POP PUSH1 0x80 PUSH2 0xCA4 DUP9 DUP3 DUP10 ADD PUSH2 0xA1C JUMP JUMPDEST SWAP2 POP POP SWAP3 SWAP6 POP SWAP3 SWAP6 SWAP1 SWAP4 POP JUMP JUMPDEST PUSH1 0x0 DUP1 PUSH1 0x0 PUSH1 0x60 DUP5 DUP7 SUB SLT ISZERO PUSH2 0xCC6 JUMPI PUSH1 0x0 DUP1 REVERT JUMPDEST PUSH1 0x0 PUSH2 0xCD4 DUP7 DUP3 DUP8 ADD PUSH2 0xA1C JUMP JUMPDEST SWAP4 POP POP PUSH1 0x20 PUSH2 0xCE5 DUP7 DUP3 DUP8 ADD PUSH2 0xA1C JUMP JUMPDEST SWAP3 POP POP PUSH1 0x40 PUSH2 0xCF6 DUP7 DUP3 DUP8 ADD PUSH2 0xA1C JUMP JUMPDEST SWAP2 POP POP SWAP3 POP SWAP3 POP SWAP3 JUMP JUMPDEST PUSH1 0x0 PUSH2 0xD0C DUP4 DUP4 PUSH2 0xD98 JUMP JUMPDEST SWAP1 POP SWAP3 SWAP2 POP POP JUMP JUMPDEST PUSH1 0x0 PUSH2 0xD1F DUP3 PUSH2 0x1009 JUMP JUMPDEST PUSH2 0xD29 DUP2 DUP6 PUSH2 0x102C JUMP JUMPDEST SWAP4 POP DUP4 PUSH1 0x20 DUP3 MUL DUP6 ADD PUSH2 0xD3B DUP6 PUSH2 0xFF9 JUMP JUMPDEST DUP1 PUSH1 0x0 JUMPDEST DUP6 DUP2 LT ISZERO PUSH2 0xD77 JUMPI DUP5 DUP5 SUB DUP10 MSTORE DUP2 MLOAD PUSH2 0xD58 DUP6 DUP3 PUSH2 0xD00 JUMP JUMPDEST SWAP5 POP PUSH2 0xD63 DUP4 PUSH2 0x101F JUMP JUMPDEST SWAP3 POP PUSH1 0x20 DUP11 ADD SWAP10 POP POP PUSH1 0x1 DUP2 ADD SWAP1 POP PUSH2 0xD3F JUMP JUMPDEST POP DUP3 SWAP8 POP DUP8 SWAP6 POP POP POP POP POP POP SWAP3 SWAP2 POP POP JUMP JUMPDEST PUSH2 0xD92 DUP2 PUSH2 0x1231 JUMP JUMPDEST DUP3 MSTORE POP POP JUMP JUMPDEST PUSH1 0x0 PUSH2 0xDA3 DUP3 PUSH2 0x1014 JUMP JUMPDEST PUSH2 0xDAD DUP2 DUP6 PUSH2 0x103D JUMP JUMPDEST SWAP4 POP PUSH2 0xDBD DUP2 DUP6 PUSH1 0x20 DUP7 ADD PUSH2 0x1256 JUMP JUMPDEST PUSH2 0xDC6 DUP2 PUSH2 0x13D9 JUMP JUMPDEST DUP5 ADD SWAP2 POP POP SWAP3 SWAP2 POP POP JUMP JUMPDEST PUSH1 0x0 PUSH2 0xDDC DUP3 PUSH2 0x1014 JUMP JUMPDEST PUSH2 0xDE6 DUP2 DUP6 PUSH2 0x104E JUMP JUMPDEST SWAP4 POP PUSH2 0xDF6 DUP2 DUP6 PUSH1 0x20 DUP7 ADD PUSH2 0x1256 JUMP JUMPDEST PUSH2 0xDFF DUP2 PUSH2 0x13D9 JUMP JUMPDEST DUP5 ADD SWAP2 POP POP SWAP3 SWAP2 POP POP JUMP JUMPDEST PUSH1 0x0 PUSH2 0xE15 DUP3 PUSH2 0x1014 JUMP JUMPDEST PUSH2 0xE1F DUP2 DUP6 PUSH2 0x105F JUMP JUMPDEST SWAP4 POP PUSH2 0xE2F DUP2 DUP6 PUSH1 0x20 DUP7 ADD PUSH2 0x1256 JUMP JUMPDEST DUP1 DUP5 ADD SWAP2 POP POP SWAP3 SWAP2 POP POP JUMP JUMPDEST PUSH1 0x40 DUP3 ADD PUSH1 0x0 DUP3 ADD MLOAD PUSH2 0xE51 PUSH1 0x0 DUP6 ADD DUP3 PUSH2 0xE6A JUMP JUMPDEST POP PUSH1 0x20 DUP3 ADD MLOAD PUSH2 0xE64 PUSH1 0x20 DUP6 ADD DUP3 PUSH2 0xE6A JUMP JUMPDEST POP POP POP POP JUMP JUMPDEST PUSH2 0xE73 DUP2 PUSH2 0x123D JUMP JUMPDEST DUP3 MSTORE POP POP JUMP JUMPDEST PUSH2 0xE82 DUP2 PUSH2 0x123D JUMP JUMPDEST DUP3 MSTORE POP POP JUMP JUMPDEST PUSH1 0x0 PUSH2 0xE94 DUP3 DUP5 PUSH2 0xE0A JUMP JUMPDEST SWAP2 POP DUP2 SWAP1 POP SWAP3 SWAP2 POP POP JUMP JUMPDEST PUSH1 0x0 PUSH1 0x20 DUP3 ADD SWAP1 POP DUP2 DUP2 SUB PUSH1 0x0 DUP4 ADD MSTORE PUSH2 0xEB9 DUP2 DUP5 PUSH2 0xD14 JUMP JUMPDEST SWAP1 POP SWAP3 SWAP2 POP POP JUMP JUMPDEST PUSH1 0x0 PUSH1 0x20 DUP3 ADD SWAP1 POP PUSH2 0xED6 PUSH1 0x0 DUP4 ADD DUP5 PUSH2 0xD89 JUMP JUMPDEST SWAP3 SWAP2 POP POP JUMP JUMPDEST PUSH1 0x0 PUSH1 0x60 DUP3 ADD SWAP1 POP DUP2 DUP2 SUB PUSH1 0x0 DUP4 ADD MSTORE PUSH2 0xEF6 DUP2 DUP7 PUSH2 0xDD1 JUMP JUMPDEST SWAP1 POP PUSH2 0xF05 PUSH1 0x20 DUP4 ADD DUP6 PUSH2 0xE79 JUMP JUMPDEST PUSH2 0xF12 PUSH1 0x40 DUP4 ADD DUP5 PUSH2 0xE79 JUMP JUMPDEST SWAP5 SWAP4 POP POP POP POP JUMP JUMPDEST PUSH1 0x0 PUSH1 0x40 DUP3 ADD SWAP1 POP PUSH2 0xF2F PUSH1 0x0 DUP4 ADD DUP5 PUSH2 0xE3B JUMP JUMPDEST SWAP3 SWAP2 POP POP JUMP JUMPDEST PUSH1 0x0 PUSH1 0x20 DUP3 ADD SWAP1 POP PUSH2 0xF4A PUSH1 0x0 DUP4 ADD DUP5 PUSH2 0xE79 JUMP JUMPDEST SWAP3 SWAP2 POP POP JUMP JUMPDEST PUSH1 0x0 PUSH1 0x80 DUP3 ADD SWAP1 POP PUSH2 0xF65 PUSH1 0x0 DUP4 ADD DUP8 PUSH2 0xE79 JUMP JUMPDEST DUP2 DUP2 SUB PUSH1 0x20 DUP4 ADD MSTORE PUSH2 0xF77 DUP2 DUP7 PUSH2 0xDD1 JUMP JUMPDEST SWAP1 POP DUP2 DUP2 SUB PUSH1 0x40 DUP4 ADD MSTORE PUSH2 0xF8B DUP2 DUP6 PUSH2 0xDD1 JUMP JUMPDEST SWAP1 POP PUSH2 0xF9A PUSH1 0x60 DUP4 ADD DUP5 PUSH2 0xE79 JUMP JUMPDEST SWAP6 SWAP5 POP POP POP POP POP JUMP JUMPDEST PUSH1 0x0 PUSH2 0xFAD PUSH2 0xFBE JUMP JUMPDEST SWAP1 POP PUSH2 0xFB9 DUP3 DUP3 PUSH2 0x12BB JUMP JUMPDEST SWAP2 SWAP1 POP JUMP JUMPDEST PUSH1 0x0 PUSH1 0x40 MLOAD SWAP1 POP SWAP1 JUMP JUMPDEST PUSH1 0x0 PUSH8 0xFFFFFFFFFFFFFFFF DUP3 GT ISZERO PUSH2 0xFE3 JUMPI PUSH2 0xFE2 PUSH2 0x13AA JUMP JUMPDEST JUMPDEST PUSH2 0xFEC DUP3 PUSH2 0x13D9 JUMP JUMPDEST SWAP1 POP PUSH1 0x20 DUP2 ADD SWAP1 POP SWAP2 SWAP1 POP JUMP JUMPDEST PUSH1 0x0 DUP2 SWAP1 POP PUSH1 0x20 DUP3 ADD SWAP1 POP SWAP2 SWAP1 POP JUMP JUMPDEST PUSH1 0x0 DUP2 MLOAD SWAP1 POP SWAP2 SWAP1 POP JUMP JUMPDEST PUSH1 0x0 DUP2 MLOAD SWAP1 POP SWAP2 SWAP1 POP JUMP JUMPDEST PUSH1 0x0 PUSH1 0x20 DUP3 ADD SWAP1 POP SWAP2 SWAP1 POP JUMP JUMPDEST PUSH1 0x0 DUP3 DUP3 MSTORE PUSH1 0x20 DUP3 ADD SWAP1 POP SWAP3 SWAP2 POP POP JUMP JUMPDEST PUSH1 0x0 DUP3 DUP3 MSTORE PUSH1 0x20 DUP3 ADD SWAP1 POP SWAP3 SWAP2 POP POP JUMP JUMPDEST PUSH1 0x0 DUP3 DUP3 MSTORE PUSH1 0x20 DUP3 ADD SWAP1 POP SWAP3 SWAP2 POP POP JUMP JUMPDEST PUSH1 0x0 DUP2 SWAP1 POP SWAP3 SWAP2 POP POP JUMP JUMPDEST PUSH1 0x0 PUSH2 0x1075 DUP3 PUSH2 0x123D JUMP JUMPDEST SWAP2 POP PUSH2 0x1080 DUP4 PUSH2 0x123D JUMP JUMPDEST SWAP3 POP DUP3 PUSH32 0xFFFFFFFFFFFFFFFFFFFFFFFFFFFFFFFFFFFFFFFFFFFFFFFFFFFFFFFFFFFFFFFF SUB DUP3 GT ISZERO PUSH2 0x10B5 JUMPI PUSH2 0x10B4 PUSH2 0x131D JUMP JUMPDEST JUMPDEST DUP3 DUP3 ADD SWAP1 POP SWAP3 SWAP2 POP POP JUMP JUMPDEST PUSH1 0x0 DUP1 DUP3 SWAP2 POP DUP4 SWAP1 POP JUMPDEST PUSH1 0x1 DUP6 GT ISZERO PUSH2 0x110A JUMPI DUP1 DUP7 DIV DUP2 GT ISZERO PUSH2 0x10E6 JUMPI PUSH2 0x10E5 PUSH2 0x131D JUMP JUMPDEST JUMPDEST PUSH1 0x1 DUP6 AND ISZERO PUSH2 0x10F5 JUMPI DUP1 DUP3 MUL SWAP2 POP JUMPDEST DUP1 DUP2 MUL SWAP1 POP PUSH2 0x1103 DUP6 PUSH2 0x13EA JUMP JUMPDEST SWAP5 POP PUSH2 0x10CA JUMP JUMPDEST SWAP5 POP SWAP5 SWAP3 POP POP POP JUMP JUMPDEST PUSH1 0x0 PUSH2 0x111E DUP3 PUSH2 0x123D JUMP JUMPDEST SWAP2 POP PUSH2 0x1129 DUP4 PUSH2 0x123D JUMP JUMPDEST SWAP3 POP PUSH2 0x1156 PUSH32 0xFFFFFFFFFFFFFFFFFFFFFFFFFFFFFFFFFFFFFFFFFFFFFFFFFFFFFFFFFFFFFFFF DUP5 DUP5 PUSH2 0x115E JUMP JUMPDEST SWAP1 POP SWAP3 SWAP2 POP POP JUMP JUMPDEST PUSH1 0x0 DUP3 PUSH2 0x116E JUMPI PUSH1 0x1 SWAP1 POP PUSH2 0x122A JUMP JUMPDEST DUP2 PUSH2 0x117C JUMPI PUSH1 0x0 SWAP1 POP PUSH2 0x122A JUMP JUMPDEST DUP2 PUSH1 0x1 DUP2 EQ PUSH2 0x1192 JUMPI PUSH1 0x2 DUP2 EQ PUSH2 0x119C JUMPI PUSH2 0x11CB JUMP JUMPDEST PUSH1 0x1 SWAP2 POP POP PUSH2 0x122A JUMP JUMPDEST PUSH1 0xFF DUP5 GT ISZERO PUSH2 0x11AE JUMPI PUSH2 0x11AD PUSH2 0x131D JUMP JUMPDEST JUMPDEST DUP4 PUSH1 0x2 EXP SWAP2 POP DUP5 DUP3 GT ISZERO PUSH2 0x11C5 JUMPI PUSH2 0x11C4 PUSH2 0x131D JUMP JUMPDEST JUMPDEST POP PUSH2 0x122A JUMP JUMPDEST POP PUSH1 0x20 DUP4 LT PUSH2 0x133 DUP4 LT AND PUSH1 0x4E DUP5 LT PUSH1 0xB DUP5 LT AND OR ISZERO PUSH2 0x1200 JUMPI DUP3 DUP3 EXP SWAP1 POP DUP4 DUP2 GT ISZERO PUSH2 0x11FB JUMPI PUSH2 0x11FA PUSH2 0x131D JUMP JUMPDEST JUMPDEST PUSH2 0x122A JUMP JUMPDEST PUSH2 0x120D DUP5 DUP5 DUP5 PUSH1 0x1 PUSH2 0x10C0 JUMP JUMPDEST SWAP3 POP SWAP1 POP DUP2 DUP5 DIV DUP2 GT ISZERO PUSH2 0x1224 JUMPI PUSH2 0x1223 PUSH2 0x131D JUMP JUMPDEST JUMPDEST DUP2 DUP2 MUL SWAP1 POP JUMPDEST SWAP4 SWAP3 POP POP POP JUMP JUMPDEST PUSH1 0x0 DUP2 ISZERO ISZERO SWAP1 POP SWAP2 SWAP1 POP JUMP JUMPDEST PUSH1 0x0 DUP2 SWAP1 POP SWAP2 SWAP1 POP JUMP JUMPDEST DUP3 DUP2 DUP4 CALLDATACOPY PUSH1 0x0 DUP4 DUP4 ADD MSTORE POP POP POP JUMP JUMPDEST PUSH1 0x0 JUMPDEST DUP4 DUP2 LT ISZERO PUSH2 0x1274 JUMPI DUP1 DUP3 ADD MLOAD DUP2 DUP5 ADD MSTORE PUSH1 0x20 DUP2 ADD SWAP1 POP PUSH2 0x1259 JUMP JUMPDEST DUP4 DUP2 GT ISZERO PUSH2 0x1283 JUMPI PUSH1 0x0 DUP5 DUP5 ADD MSTORE JUMPDEST POP POP POP POP JUMP JUMPDEST PUSH1 0x0 PUSH1 0x2 DUP3 DIV SWAP1 POP PUSH1 0x1 DUP3 AND DUP1 PUSH2 0x12A1 JUMPI PUSH1 0x7F DUP3 AND SWAP2 POP JUMPDEST PUSH1 0x20 DUP3 LT DUP2 EQ ISZERO PUSH2 0x12B5 JUMPI PUSH2 0x12B4 PUSH2 0x137B JUMP JUMPDEST JUMPDEST POP SWAP2 SWAP1 POP JUMP JUMPDEST PUSH2 0x12C4 DUP3 PUSH2 0x13D9 JUMP JUMPDEST DUP2 ADD DUP2 DUP2 LT PUSH8 0xFFFFFFFFFFFFFFFF DUP3 GT OR ISZERO PUSH2 0x12E3 JUMPI PUSH2 0x12E2 PUSH2 0x13AA JUMP JUMPDEST JUMPDEST DUP1 PUSH1 0x40 MSTORE POP POP POP JUMP JUMPDEST PUSH1 0x0 PUSH2 0x12F7 DUP3 PUSH2 0x123D JUMP JUMPDEST SWAP2 POP PUSH2 0x1302 DUP4 PUSH2 0x123D JUMP JUMPDEST SWAP3 POP DUP3 PUSH2 0x1312 JUMPI PUSH2 0x1311 PUSH2 0x134C JUMP JUMPDEST JUMPDEST DUP3 DUP3 MOD SWAP1 POP SWAP3 SWAP2 POP POP JUMP JUMPDEST PUSH32 0x4E487B7100000000000000000000000000000000000000000000000000000000 PUSH1 0x0 MSTORE PUSH1 0x11 PUSH1 0x4 MSTORE PUSH1 0x24 PUSH1 0x0 REVERT JUMPDEST PUSH32 0x4E487B7100000000000000000000000000000000000000000000000000000000 PUSH1 0x0 MSTORE PUSH1 0x12 PUSH1 0x4 MSTORE PUSH1 0x24 PUSH1 0x0 REVERT JUMPDEST PUSH32 0x4E487B7100000000000000000000000000000000000000000000000000000000 PUSH1 0x0 MSTORE PUSH1 0x22 PUSH1 0x4 MSTORE PUSH1 0x24 PUSH1 0x0 REVERT JUMPDEST PUSH32 0x4E487B7100000000000000000000000000000000000000000000000000000000 PUSH1 0x0 MSTORE PUSH1 0x41 PUSH1 0x4 MSTORE PUSH1 0x24 PUSH1 0x0 REVERT JUMPDEST PUSH1 0x0 PUSH1 0x1F NOT PUSH1 0x1F DUP4 ADD AND SWAP1 POP SWAP2 SWAP1 POP JUMP JUMPDEST PUSH1 0x0 DUP2 PUSH1 0x1 SHR SWAP1 POP SWAP2 SWAP1 POP JUMP JUMPDEST PUSH2 0x1400 DUP2 PUSH2 0x123D JUMP JUMPDEST DUP2 EQ PUSH2 0x140B JUMPI PUSH1 0x0 DUP1 REVERT JUMPDEST POP JUMP INVALID LOG2 PUSH5 0x6970667358 0x22 SLT KECCAK256 JUMPI 0x24 0xC9 PUSH7 0xE29A8873E82C4A CALLDATACOPY 0x22 0xFC SMOD 0x5D OR LT DUP1 SWAP6 SHR DUP1 KECCAK256 PUSH10 0xEFE7DB9D78102076473 PUSH16 0x6C634300080400330000000000000000 "
		},
		"gasEstimates": {
			"creation": {
				"codeDepositCost": "1037600",
				"executionCost": "41478",
				"totalCost": "1079078"
			},
			"external": {
				"addCountry(string,uint256,uint256)": "infinite",
				"computeRsa(uint256,uint256,uint256)": "infinite",
				"countryAnalaytics(string)": "infinite",
				"getAllCountries()": "infinite",
				"getClinicPublicKey(uint256,uint256,string)": "infinite",
				"retrieve(uint256)": "infinite",
				"store(uint256,uint256,string,string,uint256,uint256)": "infinite",
				"verifyClinic(uint256,uint256,string,uint256,uint256)": "infinite"
			}
		},
		"methodIdentifiers": {
			"addCountry(string,uint256,uint256)": "30f53f5b",
			"computeRsa(uint256,uint256,uint256)": "0de0433a",
			"countryAnalaytics(string)": "1c6a73ae",
			"getAllCountries()": "0d4bf50d",
			"getClinicPublicKey(uint256,uint256,string)": "3e974073",
			"retrieve(uint256)": "8f88708b",
			"store(uint256,uint256,string,string,uint256,uint256)": "2e2f6232",
			"verifyClinic(uint256,uint256,string,uint256,uint256)": "024a9fee"
		}
	},
	"abi": [
		{
			"inputs": [],
			"stateMutability": "nonpayable",
			"type": "constructor"
		},
		{
			"inputs": [
				{
					"internalType": "string",
					"name": "countryName",
					"type": "string"
				},
				{
					"internalType": "uint256",
					"name": "population",
					"type": "uint256"
				},
				{
					"internalType": "uint256",
					"name": "vaccinatedNumbers",
					"type": "uint256"
				}
			],
			"name": "addCountry",
			"outputs": [],
			"stateMutability": "nonpayable",
			"type": "function"
		},
		{
			"inputs": [
				{
					"internalType": "uint256",
					"name": "x",
					"type": "uint256"
				},
				{
					"internalType": "uint256",
					"name": "exponent",
					"type": "uint256"
				},
				{
					"internalType": "uint256",
					"name": "modulus",
					"type": "uint256"
				}
			],
			"name": "computeRsa",
			"outputs": [
				{
					"internalType": "uint256",
					"name": "",
					"type": "uint256"
				}
			],
			"stateMutability": "view",
			"type": "function"
		},
		{
			"inputs": [
				{
					"internalType": "string",
					"name": "countryName",
					"type": "string"
				}
			],
			"name": "countryAnalaytics",
			"outputs": [
				{
					"internalType": "string",
					"name": "",
					"type": "string"
				},
				{
					"internalType": "uint256",
					"name": "",
					"type": "uint256"
				},
				{
					"internalType": "uint256",
					"name": "",
					"type": "uint256"
				}
			],
			"stateMutability": "view",
			"type": "function"
		},
		{
			"inputs": [],
			"name": "getAllCountries",
			"outputs": [
				{
					"internalType": "string[]",
					"name": "",
					"type": "string[]"
				}
			],
			"stateMutability": "view",
			"type": "function"
		},
		{
			"inputs": [
				{
					"internalType": "uint256",
					"name": "clinicKeyCert",
					"type": "uint256"
				},
				{
					"internalType": "uint256",
					"name": "clinicModulusCert",
					"type": "uint256"
				},
				{
					"internalType": "string",
					"name": "country",
					"type": "string"
				}
			],
			"name": "getClinicPublicKey",
			"outputs": [
				{
					"components": [
						{
							"internalType": "uint256",
							"name": "key",
							"type": "uint256"
						},
						{
							"internalType": "uint256",
							"name": "modulus",
							"type": "uint256"
						}
					],
					"internalType": "struct Records.RsaKey",
					"name": "",
					"type": "tuple"
				}
			],
			"stateMutability": "view",
			"type": "function"
		},
		{
			"inputs": [
				{
					"internalType": "uint256",
					"name": "passportNumber",
					"type": "uint256"
				}
			],
			"name": "retrieve",
			"outputs": [
				{
					"internalType": "uint256",
					"name": "",
					"type": "uint256"
				},
				{
					"internalType": "string",
					"name": "",
					"type": "string"
				},
				{
					"internalType": "string",
					"name": "",
					"type": "string"
				},
				{
					"internalType": "uint256",
					"name": "",
					"type": "uint256"
				}
			],
			"stateMutability": "view",
			"type": "function"
		},
		{
			"inputs": [
				{
					"internalType": "uint256",
					"name": "passportNumberEncrypted",
					"type": "uint256"
				},
				{
					"internalType": "uint256",
					"name": "passportNumber",
					"type": "uint256"
				},
				{
					"internalType": "string",
					"name": "vaccineManufacturer",
					"type": "string"
				},
				{
					"internalType": "string",
					"name": "country",
					"type": "string"
				},
				{
					"internalType": "uint256",
					"name": "clinicKeyCert",
					"type": "uint256"
				},
				{
					"internalType": "uint256",
					"name": "clinicModulusCert",
					"type": "uint256"
				}
			],
			"name": "store",
			"outputs": [
				{
					"internalType": "bool",
					"name": "",
					"type": "bool"
				}
			],
			"stateMutability": "payable",
			"type": "function"
		},
		{
			"inputs": [
				{
					"internalType": "uint256",
					"name": "passportNumberEncrypted",
					"type": "uint256"
				},
				{
					"internalType": "uint256",
					"name": "passportNumber",
					"type": "uint256"
				},
				{
					"internalType": "string",
					"name": "country",
					"type": "string"
				},
				{
					"internalType": "uint256",
					"name": "clinicKeyCert",
					"type": "uint256"
				},
				{
					"internalType": "uint256",
					"name": "clinicModulusCert",
					"type": "uint256"
				}
			],
			"name": "verifyClinic",
			"outputs": [
				{
					"internalType": "bool",
					"name": "",
					"type": "bool"
				}
			],
			"stateMutability": "view",
			"type": "function"
		}
	]
}