{
	"data": {
		"bytecode": {
			"linkReferences": {},
			"object": "60806040523480156200001157600080fd5b506040518060400160405280600581526020016023815250600260405162000039906200087c565b90815260200160405180910390206000820151816000015560208201518160010155905050600380600181540180825580915050600190039060005260206000200160006040518060400160405280600981526020017f53696e6761706f7265000000000000000000000000000000000000000000000081525090919091509080519060200190620000cd929190620006ad565b5060405180606001604052806040518060400160405280600981526020017f53696e6761706f726500000000000000000000000000000000000000000000008152508152602001625709408152602001623ae620815250600460405162000134906200087c565b9081526020016040518091039020600082015181600001908051906020019062000160929190620006ad565b506020820151816001015560408201518160020155905050604051806040016040528060058152602001602381525060026040516200019f9062000820565b90815260200160405180910390206000820151816000015560208201518160010155905050600380600181540180825580915050600190039060005260206000200160006040518060400160405280600881526020017f4d616c61797369610000000000000000000000000000000000000000000000008152509091909150908051906020019062000233929190620006ad565b5060405180606001604052806040518060400160405280600881526020017f4d616c617973696100000000000000000000000000000000000000000000000081525081526020016301e784b08152602001628a179081525060046040516200029b9062000820565b90815260200160405180910390206000820151816000019080519060200190620002c7929190620006ad565b50602082015181600101556040820151816002015590505060405180604001604052806005815260200160238152506002604051620003069062000865565b90815260200160405180910390206000820151816000015560208201518160010155905050600380600181540180825580915050600190039060005260206000200160006040518060400160405280600581526020017f496e646961000000000000000000000000000000000000000000000000000000815250909190915090805190602001906200039a929190620006ad565b5060405180606001604052806040518060400160405280600581526020017f496e646961000000000000000000000000000000000000000000000000000000815250815260200163516b818081526020016306bc3e408152506004604051620004039062000865565b908152602001604051809103902060008201518160000190805190602001906200042f929190620006ad565b506020820151816001015560408201518160020155905050604051806040016040528060058152602001602381525060026040516200046e906200084e565b90815260200160405180910390206000820151816000015560208201518160010155905050600380600181540180825580915050600190039060005260206000200160006040518060400160405280600581526020017f4368696e610000000000000000000000000000000000000000000000000000008152509091909150908051906020019062000502929190620006ad565b5060405180606001604052806040518060400160405280600581526020017f4368696e610000000000000000000000000000000000000000000000000000008152508152602001635353c9808152602001630d4ab5c081525060046040516200056b906200084e565b9081526020016040518091039020600082015181600001908051906020019062000597929190620006ad565b50602082015181600101556040820151816002015590505060405180604001604052806005815260200160238152506002604051620005d69062000837565b9081526020016040518091039020600082015181600001556020820151816001015590505060405180606001604052806040518060400160405280600d81526020017f556e697465642053746174657300000000000000000000000000000000000000815250815260200163138fef4081526020016309eee0908152506004604051620006639062000837565b908152602001604051809103902060008201518160000190805190602001906200068f929190620006ad565b506020820151816001015560408201518160020155905050620009d0565b828054620006bb906200089e565b90600052602060002090601f016020900481019282620006df57600085556200072b565b82601f10620006fa57805160ff19168380011785556200072b565b828001600101855582156200072b579182015b828111156200072a5782518255916020019190600101906200070d565b5b5090506200073a91906200073e565b5090565b5b80821115620007595760008160009055506001016200073f565b5090565b60006200076c60088362000893565b9150620007798262000903565b600882019050919050565b600062000793600d8362000893565b9150620007a0826200092c565b600d82019050919050565b6000620007ba60058362000893565b9150620007c78262000955565b600582019050919050565b6000620007e160058362000893565b9150620007ee826200097e565b600582019050919050565b60006200080860098362000893565b91506200081582620009a7565b600982019050919050565b60006200082d826200075d565b9150819050919050565b6000620008448262000784565b9150819050919050565b60006200085b82620007ab565b9150819050919050565b60006200087282620007d2565b9150819050919050565b60006200088982620007f9565b9150819050919050565b600081905092915050565b60006002820490506001821680620008b757607f821691505b60208210811415620008ce57620008cd620008d4565b5b50919050565b7f4e487b7100000000000000000000000000000000000000000000000000000000600052602260045260246000fd5b7f4d616c6179736961000000000000000000000000000000000000000000000000600082015250565b7f556e697465642053746174657300000000000000000000000000000000000000600082015250565b7f4368696e61000000000000000000000000000000000000000000000000000000600082015250565b7f496e646961000000000000000000000000000000000000000000000000000000600082015250565b7f53696e6761706f72650000000000000000000000000000000000000000000000600082015250565b610fed80620009e06000396000f3fe60806040526004361061003f5760003560e01c80630a3c59741461004457806384304fbb146100745780639507d39a1461009f5780639f3df11a146100df575b600080fd5b61005e60048036038101906100599190610844565b61011e565b60405161006b9190610a8c565b60405180910390f35b34801561008057600080fd5b50610089610231565b6040516100969190610a6a565b60405180910390f35b3480156100ab57600080fd5b506100c660048036038101906100c19190610817565b61030a565b6040516100d69493929190610ae5565b60405180910390f35b3480156100eb57600080fd5b50610106600480360381019061010191906107ce565b610492565b60405161011593929190610aa7565b60405180910390f35b600061012d8787868686610595565b15610222576000869080600181540180825580915050600190039060005260206000200160009091909190915055604051806080016040528087815260200186815260200185815260200142815250600160008881526020019081526020016000206000820151816000015560208201518160010190805190602001906101b592919061068c565b5060408201518160020190805190602001906101d292919061068c565b506060820151816003015590505060016004856040516101f29190610a53565b908152602001604051809103902060020160008282546102129190610bff565b9250508190555060019050610227565b600090505b9695505050505050565b60606003805480602002602001604051908101604052809291908181526020016000905b8282101561030157838290600052602060002001805461027490610e1e565b80601f01602080910402602001604051908101604052809291908181526020018280546102a090610e1e565b80156102ed5780601f106102c2576101008083540402835291602001916102ed565b820191906000526020600020905b8154815290600101906020018083116102d057829003601f168201915b505050505081526020019060010190610255565b50505050905090565b6000606080600060016000868152602001908152602001600020600001546001600087815260200190815260200160002060010160016000888152602001908152602001600020600201600160008981526020019081526020016000206003015482805461037790610e1e565b80601f01602080910402602001604051908101604052809291908181526020018280546103a390610e1e565b80156103f05780601f106103c5576101008083540402835291602001916103f0565b820191906000526020600020905b8154815290600101906020018083116103d357829003601f168201915b5050505050925081805461040390610e1e565b80601f016020809104026020016040519081016040528092919081815260200182805461042f90610e1e565b801561047c5780601f106104515761010080835404028352916020019161047c565b820191906000526020600020905b81548152906001019060200180831161045f57829003601f168201915b5050505050915093509350935093509193509193565b60606000806004846040516104a79190610a53565b90815260200160405180910390206000016004856040516104c89190610a53565b9081526020016040518091039020600101546004866040516104ea9190610a53565b90815260200160405180910390206002015482805461050890610e1e565b80601f016020809104026020016040519081016040528092919081815260200182805461053490610e1e565b80156105815780601f1061055657610100808354040283529160200191610581565b820191906000526020600020905b81548152906001019060200180831161056457829003601f168201915b505050505092509250925092509193909250565b6000806105a38484876105cc565b905060006105ba888360000151846020015161066a565b90508681149250505095945050505050565b6105d4610712565b60006002836040516105e69190610a53565b9081526020016040518091039020604051806040016040529081600082015481526020016001820154815250509050600061062a868360000151846020015161066a565b90506000610641868460000151856020015161066a565b905060006040518060400160405280848152602001838152509050809450505050509392505050565b60008183856106799190610ca8565b6106839190610e81565b90509392505050565b82805461069890610e1e565b90600052602060002090601f0160209004810192826106ba5760008555610701565b82601f106106d357805160ff1916838001178555610701565b82800160010185558215610701579182015b828111156107005782518255916020019190600101906106e5565b5b50905061070e919061072c565b5090565b604051806040016040528060008152602001600081525090565b5b8082111561074557600081600090555060010161072d565b5090565b600061075c61075784610b5d565b610b38565b90508281526020810184848401111561077857610777610f73565b5b610783848285610ddc565b509392505050565b600082601f8301126107a05761079f610f6e565b5b81356107b0848260208601610749565b91505092915050565b6000813590506107c881610fa0565b92915050565b6000602082840312156107e4576107e3610f7d565b5b600082013567ffffffffffffffff81111561080257610801610f78565b5b61080e8482850161078b565b91505092915050565b60006020828403121561082d5761082c610f7d565b5b600061083b848285016107b9565b91505092915050565b60008060008060008060c0878903121561086157610860610f7d565b5b600061086f89828a016107b9565b965050602061088089828a016107b9565b955050604087013567ffffffffffffffff8111156108a1576108a0610f78565b5b6108ad89828a0161078b565b945050606087013567ffffffffffffffff8111156108ce576108cd610f78565b5b6108da89828a0161078b565b93505060806108eb89828a016107b9565b92505060a06108fc89828a016107b9565b9150509295509295509295565b600061091583836109a1565b905092915050565b600061092882610b9e565b6109328185610bc1565b93508360208202850161094485610b8e565b8060005b8581101561098057848403895281516109618582610909565b945061096c83610bb4565b925060208a01995050600181019050610948565b50829750879550505050505092915050565b61099b81610dc6565b82525050565b60006109ac82610ba9565b6109b68185610bd2565b93506109c6818560208601610deb565b6109cf81610f82565b840191505092915050565b60006109e582610ba9565b6109ef8185610be3565b93506109ff818560208601610deb565b610a0881610f82565b840191505092915050565b6000610a1e82610ba9565b610a288185610bf4565b9350610a38818560208601610deb565b80840191505092915050565b610a4d81610dd2565b82525050565b6000610a5f8284610a13565b915081905092915050565b60006020820190508181036000830152610a84818461091d565b905092915050565b6000602082019050610aa16000830184610992565b92915050565b60006060820190508181036000830152610ac181866109da565b9050610ad06020830185610a44565b610add6040830184610a44565b949350505050565b6000608082019050610afa6000830187610a44565b8181036020830152610b0c81866109da565b90508181036040830152610b2081856109da565b9050610b2f6060830184610a44565b95945050505050565b6000610b42610b53565b9050610b4e8282610e50565b919050565b6000604051905090565b600067ffffffffffffffff821115610b7857610b77610f3f565b5b610b8182610f82565b9050602081019050919050565b6000819050602082019050919050565b600081519050919050565b600081519050919050565b6000602082019050919050565b600082825260208201905092915050565b600082825260208201905092915050565b600082825260208201905092915050565b600081905092915050565b6000610c0a82610dd2565b9150610c1583610dd2565b9250827fffffffffffffffffffffffffffffffffffffffffffffffffffffffffffffffff03821115610c4a57610c49610eb2565b5b828201905092915050565b6000808291508390505b6001851115610c9f57808604811115610c7b57610c7a610eb2565b5b6001851615610c8a5780820291505b8081029050610c9885610f93565b9450610c5f565b94509492505050565b6000610cb382610dd2565b9150610cbe83610dd2565b9250610ceb7fffffffffffffffffffffffffffffffffffffffffffffffffffffffffffffffff8484610cf3565b905092915050565b600082610d035760019050610dbf565b81610d115760009050610dbf565b8160018114610d275760028114610d3157610d60565b6001915050610dbf565b60ff841115610d4357610d42610eb2565b5b8360020a915084821115610d5a57610d59610eb2565b5b50610dbf565b5060208310610133831016604e8410600b8410161715610d955782820a905083811115610d9057610d8f610eb2565b5b610dbf565b610da28484846001610c55565b92509050818404811115610db957610db8610eb2565b5b81810290505b9392505050565b60008115159050919050565b6000819050919050565b82818337600083830152505050565b60005b83811015610e09578082015181840152602081019050610dee565b83811115610e18576000848401525b50505050565b60006002820490506001821680610e3657607f821691505b60208210811415610e4a57610e49610f10565b5b50919050565b610e5982610f82565b810181811067ffffffffffffffff82111715610e7857610e77610f3f565b5b80604052505050565b6000610e8c82610dd2565b9150610e9783610dd2565b925082610ea757610ea6610ee1565b5b828206905092915050565b7f4e487b7100000000000000000000000000000000000000000000000000000000600052601160045260246000fd5b7f4e487b7100000000000000000000000000000000000000000000000000000000600052601260045260246000fd5b7f4e487b7100000000000000000000000000000000000000000000000000000000600052602260045260246000fd5b7f4e487b7100000000000000000000000000000000000000000000000000000000600052604160045260246000fd5b600080fd5b600080fd5b600080fd5b600080fd5b6000601f19601f8301169050919050565b60008160011c9050919050565b610fa981610dd2565b8114610fb457600080fd5b5056fea26469706673582212201ce65db0dfd84df64ace5458be6cf5ed7ac38749958b21b152d83d79d8ceb68d64736f6c63430008060033",
			"opcodes": "PUSH1 0x80 PUSH1 0x40 MSTORE CALLVALUE DUP1 ISZERO PUSH3 0x11 JUMPI PUSH1 0x0 DUP1 REVERT JUMPDEST POP PUSH1 0x40 MLOAD DUP1 PUSH1 0x40 ADD PUSH1 0x40 MSTORE DUP1 PUSH1 0x5 DUP2 MSTORE PUSH1 0x20 ADD PUSH1 0x23 DUP2 MSTORE POP PUSH1 0x2 PUSH1 0x40 MLOAD PUSH3 0x39 SWAP1 PUSH3 0x87C JUMP JUMPDEST SWAP1 DUP2 MSTORE PUSH1 0x20 ADD PUSH1 0x40 MLOAD DUP1 SWAP2 SUB SWAP1 KECCAK256 PUSH1 0x0 DUP3 ADD MLOAD DUP2 PUSH1 0x0 ADD SSTORE PUSH1 0x20 DUP3 ADD MLOAD DUP2 PUSH1 0x1 ADD SSTORE SWAP1 POP POP PUSH1 0x3 DUP1 PUSH1 0x1 DUP2 SLOAD ADD DUP1 DUP3 SSTORE DUP1 SWAP2 POP POP PUSH1 0x1 SWAP1 SUB SWAP1 PUSH1 0x0 MSTORE PUSH1 0x20 PUSH1 0x0 KECCAK256 ADD PUSH1 0x0 PUSH1 0x40 MLOAD DUP1 PUSH1 0x40 ADD PUSH1 0x40 MSTORE DUP1 PUSH1 0x9 DUP2 MSTORE PUSH1 0x20 ADD PUSH32 0x53696E6761706F72650000000000000000000000000000000000000000000000 DUP2 MSTORE POP SWAP1 SWAP2 SWAP1 SWAP2 POP SWAP1 DUP1 MLOAD SWAP1 PUSH1 0x20 ADD SWAP1 PUSH3 0xCD SWAP3 SWAP2 SWAP1 PUSH3 0x6AD JUMP JUMPDEST POP PUSH1 0x40 MLOAD DUP1 PUSH1 0x60 ADD PUSH1 0x40 MSTORE DUP1 PUSH1 0x40 MLOAD DUP1 PUSH1 0x40 ADD PUSH1 0x40 MSTORE DUP1 PUSH1 0x9 DUP2 MSTORE PUSH1 0x20 ADD PUSH32 0x53696E6761706F72650000000000000000000000000000000000000000000000 DUP2 MSTORE POP DUP2 MSTORE PUSH1 0x20 ADD PUSH3 0x570940 DUP2 MSTORE PUSH1 0x20 ADD PUSH3 0x3AE620 DUP2 MSTORE POP PUSH1 0x4 PUSH1 0x40 MLOAD PUSH3 0x134 SWAP1 PUSH3 0x87C JUMP JUMPDEST SWAP1 DUP2 MSTORE PUSH1 0x20 ADD PUSH1 0x40 MLOAD DUP1 SWAP2 SUB SWAP1 KECCAK256 PUSH1 0x0 DUP3 ADD MLOAD DUP2 PUSH1 0x0 ADD SWAP1 DUP1 MLOAD SWAP1 PUSH1 0x20 ADD SWAP1 PUSH3 0x160 SWAP3 SWAP2 SWAP1 PUSH3 0x6AD JUMP JUMPDEST POP PUSH1 0x20 DUP3 ADD MLOAD DUP2 PUSH1 0x1 ADD SSTORE PUSH1 0x40 DUP3 ADD MLOAD DUP2 PUSH1 0x2 ADD SSTORE SWAP1 POP POP PUSH1 0x40 MLOAD DUP1 PUSH1 0x40 ADD PUSH1 0x40 MSTORE DUP1 PUSH1 0x5 DUP2 MSTORE PUSH1 0x20 ADD PUSH1 0x23 DUP2 MSTORE POP PUSH1 0x2 PUSH1 0x40 MLOAD PUSH3 0x19F SWAP1 PUSH3 0x820 JUMP JUMPDEST SWAP1 DUP2 MSTORE PUSH1 0x20 ADD PUSH1 0x40 MLOAD DUP1 SWAP2 SUB SWAP1 KECCAK256 PUSH1 0x0 DUP3 ADD MLOAD DUP2 PUSH1 0x0 ADD SSTORE PUSH1 0x20 DUP3 ADD MLOAD DUP2 PUSH1 0x1 ADD SSTORE SWAP1 POP POP PUSH1 0x3 DUP1 PUSH1 0x1 DUP2 SLOAD ADD DUP1 DUP3 SSTORE DUP1 SWAP2 POP POP PUSH1 0x1 SWAP1 SUB SWAP1 PUSH1 0x0 MSTORE PUSH1 0x20 PUSH1 0x0 KECCAK256 ADD PUSH1 0x0 PUSH1 0x40 MLOAD DUP1 PUSH1 0x40 ADD PUSH1 0x40 MSTORE DUP1 PUSH1 0x8 DUP2 MSTORE PUSH1 0x20 ADD PUSH32 0x4D616C6179736961000000000000000000000000000000000000000000000000 DUP2 MSTORE POP SWAP1 SWAP2 SWAP1 SWAP2 POP SWAP1 DUP1 MLOAD SWAP1 PUSH1 0x20 ADD SWAP1 PUSH3 0x233 SWAP3 SWAP2 SWAP1 PUSH3 0x6AD JUMP JUMPDEST POP PUSH1 0x40 MLOAD DUP1 PUSH1 0x60 ADD PUSH1 0x40 MSTORE DUP1 PUSH1 0x40 MLOAD DUP1 PUSH1 0x40 ADD PUSH1 0x40 MSTORE DUP1 PUSH1 0x8 DUP2 MSTORE PUSH1 0x20 ADD PUSH32 0x4D616C6179736961000000000000000000000000000000000000000000000000 DUP2 MSTORE POP DUP2 MSTORE PUSH1 0x20 ADD PUSH4 0x1E784B0 DUP2 MSTORE PUSH1 0x20 ADD PUSH3 0x8A1790 DUP2 MSTORE POP PUSH1 0x4 PUSH1 0x40 MLOAD PUSH3 0x29B SWAP1 PUSH3 0x820 JUMP JUMPDEST SWAP1 DUP2 MSTORE PUSH1 0x20 ADD PUSH1 0x40 MLOAD DUP1 SWAP2 SUB SWAP1 KECCAK256 PUSH1 0x0 DUP3 ADD MLOAD DUP2 PUSH1 0x0 ADD SWAP1 DUP1 MLOAD SWAP1 PUSH1 0x20 ADD SWAP1 PUSH3 0x2C7 SWAP3 SWAP2 SWAP1 PUSH3 0x6AD JUMP JUMPDEST POP PUSH1 0x20 DUP3 ADD MLOAD DUP2 PUSH1 0x1 ADD SSTORE PUSH1 0x40 DUP3 ADD MLOAD DUP2 PUSH1 0x2 ADD SSTORE SWAP1 POP POP PUSH1 0x40 MLOAD DUP1 PUSH1 0x40 ADD PUSH1 0x40 MSTORE DUP1 PUSH1 0x5 DUP2 MSTORE PUSH1 0x20 ADD PUSH1 0x23 DUP2 MSTORE POP PUSH1 0x2 PUSH1 0x40 MLOAD PUSH3 0x306 SWAP1 PUSH3 0x865 JUMP JUMPDEST SWAP1 DUP2 MSTORE PUSH1 0x20 ADD PUSH1 0x40 MLOAD DUP1 SWAP2 SUB SWAP1 KECCAK256 PUSH1 0x0 DUP3 ADD MLOAD DUP2 PUSH1 0x0 ADD SSTORE PUSH1 0x20 DUP3 ADD MLOAD DUP2 PUSH1 0x1 ADD SSTORE SWAP1 POP POP PUSH1 0x3 DUP1 PUSH1 0x1 DUP2 SLOAD ADD DUP1 DUP3 SSTORE DUP1 SWAP2 POP POP PUSH1 0x1 SWAP1 SUB SWAP1 PUSH1 0x0 MSTORE PUSH1 0x20 PUSH1 0x0 KECCAK256 ADD PUSH1 0x0 PUSH1 0x40 MLOAD DUP1 PUSH1 0x40 ADD PUSH1 0x40 MSTORE DUP1 PUSH1 0x5 DUP2 MSTORE PUSH1 0x20 ADD PUSH32 0x496E646961000000000000000000000000000000000000000000000000000000 DUP2 MSTORE POP SWAP1 SWAP2 SWAP1 SWAP2 POP SWAP1 DUP1 MLOAD SWAP1 PUSH1 0x20 ADD SWAP1 PUSH3 0x39A SWAP3 SWAP2 SWAP1 PUSH3 0x6AD JUMP JUMPDEST POP PUSH1 0x40 MLOAD DUP1 PUSH1 0x60 ADD PUSH1 0x40 MSTORE DUP1 PUSH1 0x40 MLOAD DUP1 PUSH1 0x40 ADD PUSH1 0x40 MSTORE DUP1 PUSH1 0x5 DUP2 MSTORE PUSH1 0x20 ADD PUSH32 0x496E646961000000000000000000000000000000000000000000000000000000 DUP2 MSTORE POP DUP2 MSTORE PUSH1 0x20 ADD PUSH4 0x516B8180 DUP2 MSTORE PUSH1 0x20 ADD PUSH4 0x6BC3E40 DUP2 MSTORE POP PUSH1 0x4 PUSH1 0x40 MLOAD PUSH3 0x403 SWAP1 PUSH3 0x865 JUMP JUMPDEST SWAP1 DUP2 MSTORE PUSH1 0x20 ADD PUSH1 0x40 MLOAD DUP1 SWAP2 SUB SWAP1 KECCAK256 PUSH1 0x0 DUP3 ADD MLOAD DUP2 PUSH1 0x0 ADD SWAP1 DUP1 MLOAD SWAP1 PUSH1 0x20 ADD SWAP1 PUSH3 0x42F SWAP3 SWAP2 SWAP1 PUSH3 0x6AD JUMP JUMPDEST POP PUSH1 0x20 DUP3 ADD MLOAD DUP2 PUSH1 0x1 ADD SSTORE PUSH1 0x40 DUP3 ADD MLOAD DUP2 PUSH1 0x2 ADD SSTORE SWAP1 POP POP PUSH1 0x40 MLOAD DUP1 PUSH1 0x40 ADD PUSH1 0x40 MSTORE DUP1 PUSH1 0x5 DUP2 MSTORE PUSH1 0x20 ADD PUSH1 0x23 DUP2 MSTORE POP PUSH1 0x2 PUSH1 0x40 MLOAD PUSH3 0x46E SWAP1 PUSH3 0x84E JUMP JUMPDEST SWAP1 DUP2 MSTORE PUSH1 0x20 ADD PUSH1 0x40 MLOAD DUP1 SWAP2 SUB SWAP1 KECCAK256 PUSH1 0x0 DUP3 ADD MLOAD DUP2 PUSH1 0x0 ADD SSTORE PUSH1 0x20 DUP3 ADD MLOAD DUP2 PUSH1 0x1 ADD SSTORE SWAP1 POP POP PUSH1 0x3 DUP1 PUSH1 0x1 DUP2 SLOAD ADD DUP1 DUP3 SSTORE DUP1 SWAP2 POP POP PUSH1 0x1 SWAP1 SUB SWAP1 PUSH1 0x0 MSTORE PUSH1 0x20 PUSH1 0x0 KECCAK256 ADD PUSH1 0x0 PUSH1 0x40 MLOAD DUP1 PUSH1 0x40 ADD PUSH1 0x40 MSTORE DUP1 PUSH1 0x5 DUP2 MSTORE PUSH1 0x20 ADD PUSH32 0x4368696E61000000000000000000000000000000000000000000000000000000 DUP2 MSTORE POP SWAP1 SWAP2 SWAP1 SWAP2 POP SWAP1 DUP1 MLOAD SWAP1 PUSH1 0x20 ADD SWAP1 PUSH3 0x502 SWAP3 SWAP2 SWAP1 PUSH3 0x6AD JUMP JUMPDEST POP PUSH1 0x40 MLOAD DUP1 PUSH1 0x60 ADD PUSH1 0x40 MSTORE DUP1 PUSH1 0x40 MLOAD DUP1 PUSH1 0x40 ADD PUSH1 0x40 MSTORE DUP1 PUSH1 0x5 DUP2 MSTORE PUSH1 0x20 ADD PUSH32 0x4368696E61000000000000000000000000000000000000000000000000000000 DUP2 MSTORE POP DUP2 MSTORE PUSH1 0x20 ADD PUSH4 0x5353C980 DUP2 MSTORE PUSH1 0x20 ADD PUSH4 0xD4AB5C0 DUP2 MSTORE POP PUSH1 0x4 PUSH1 0x40 MLOAD PUSH3 0x56B SWAP1 PUSH3 0x84E JUMP JUMPDEST SWAP1 DUP2 MSTORE PUSH1 0x20 ADD PUSH1 0x40 MLOAD DUP1 SWAP2 SUB SWAP1 KECCAK256 PUSH1 0x0 DUP3 ADD MLOAD DUP2 PUSH1 0x0 ADD SWAP1 DUP1 MLOAD SWAP1 PUSH1 0x20 ADD SWAP1 PUSH3 0x597 SWAP3 SWAP2 SWAP1 PUSH3 0x6AD JUMP JUMPDEST POP PUSH1 0x20 DUP3 ADD MLOAD DUP2 PUSH1 0x1 ADD SSTORE PUSH1 0x40 DUP3 ADD MLOAD DUP2 PUSH1 0x2 ADD SSTORE SWAP1 POP POP PUSH1 0x40 MLOAD DUP1 PUSH1 0x40 ADD PUSH1 0x40 MSTORE DUP1 PUSH1 0x5 DUP2 MSTORE PUSH1 0x20 ADD PUSH1 0x23 DUP2 MSTORE POP PUSH1 0x2 PUSH1 0x40 MLOAD PUSH3 0x5D6 SWAP1 PUSH3 0x837 JUMP JUMPDEST SWAP1 DUP2 MSTORE PUSH1 0x20 ADD PUSH1 0x40 MLOAD DUP1 SWAP2 SUB SWAP1 KECCAK256 PUSH1 0x0 DUP3 ADD MLOAD DUP2 PUSH1 0x0 ADD SSTORE PUSH1 0x20 DUP3 ADD MLOAD DUP2 PUSH1 0x1 ADD SSTORE SWAP1 POP POP PUSH1 0x40 MLOAD DUP1 PUSH1 0x60 ADD PUSH1 0x40 MSTORE DUP1 PUSH1 0x40 MLOAD DUP1 PUSH1 0x40 ADD PUSH1 0x40 MSTORE DUP1 PUSH1 0xD DUP2 MSTORE PUSH1 0x20 ADD PUSH32 0x556E697465642053746174657300000000000000000000000000000000000000 DUP2 MSTORE POP DUP2 MSTORE PUSH1 0x20 ADD PUSH4 0x138FEF40 DUP2 MSTORE PUSH1 0x20 ADD PUSH4 0x9EEE090 DUP2 MSTORE POP PUSH1 0x4 PUSH1 0x40 MLOAD PUSH3 0x663 SWAP1 PUSH3 0x837 JUMP JUMPDEST SWAP1 DUP2 MSTORE PUSH1 0x20 ADD PUSH1 0x40 MLOAD DUP1 SWAP2 SUB SWAP1 KECCAK256 PUSH1 0x0 DUP3 ADD MLOAD DUP2 PUSH1 0x0 ADD SWAP1 DUP1 MLOAD SWAP1 PUSH1 0x20 ADD SWAP1 PUSH3 0x68F SWAP3 SWAP2 SWAP1 PUSH3 0x6AD JUMP JUMPDEST POP PUSH1 0x20 DUP3 ADD MLOAD DUP2 PUSH1 0x1 ADD SSTORE PUSH1 0x40 DUP3 ADD MLOAD DUP2 PUSH1 0x2 ADD SSTORE SWAP1 POP POP PUSH3 0x9D0 JUMP JUMPDEST DUP3 DUP1 SLOAD PUSH3 0x6BB SWAP1 PUSH3 0x89E JUMP JUMPDEST SWAP1 PUSH1 0x0 MSTORE PUSH1 0x20 PUSH1 0x0 KECCAK256 SWAP1 PUSH1 0x1F ADD PUSH1 0x20 SWAP1 DIV DUP2 ADD SWAP3 DUP3 PUSH3 0x6DF JUMPI PUSH1 0x0 DUP6 SSTORE PUSH3 0x72B JUMP JUMPDEST DUP3 PUSH1 0x1F LT PUSH3 0x6FA JUMPI DUP1 MLOAD PUSH1 0xFF NOT AND DUP4 DUP1 ADD OR DUP6 SSTORE PUSH3 0x72B JUMP JUMPDEST DUP3 DUP1 ADD PUSH1 0x1 ADD DUP6 SSTORE DUP3 ISZERO PUSH3 0x72B JUMPI SWAP2 DUP3 ADD JUMPDEST DUP3 DUP2 GT ISZERO PUSH3 0x72A JUMPI DUP3 MLOAD DUP3 SSTORE SWAP2 PUSH1 0x20 ADD SWAP2 SWAP1 PUSH1 0x1 ADD SWAP1 PUSH3 0x70D JUMP JUMPDEST JUMPDEST POP SWAP1 POP PUSH3 0x73A SWAP2 SWAP1 PUSH3 0x73E JUMP JUMPDEST POP SWAP1 JUMP JUMPDEST JUMPDEST DUP1 DUP3 GT ISZERO PUSH3 0x759 JUMPI PUSH1 0x0 DUP2 PUSH1 0x0 SWAP1 SSTORE POP PUSH1 0x1 ADD PUSH3 0x73F JUMP JUMPDEST POP SWAP1 JUMP JUMPDEST PUSH1 0x0 PUSH3 0x76C PUSH1 0x8 DUP4 PUSH3 0x893 JUMP JUMPDEST SWAP2 POP PUSH3 0x779 DUP3 PUSH3 0x903 JUMP JUMPDEST PUSH1 0x8 DUP3 ADD SWAP1 POP SWAP2 SWAP1 POP JUMP JUMPDEST PUSH1 0x0 PUSH3 0x793 PUSH1 0xD DUP4 PUSH3 0x893 JUMP JUMPDEST SWAP2 POP PUSH3 0x7A0 DUP3 PUSH3 0x92C JUMP JUMPDEST PUSH1 0xD DUP3 ADD SWAP1 POP SWAP2 SWAP1 POP JUMP JUMPDEST PUSH1 0x0 PUSH3 0x7BA PUSH1 0x5 DUP4 PUSH3 0x893 JUMP JUMPDEST SWAP2 POP PUSH3 0x7C7 DUP3 PUSH3 0x955 JUMP JUMPDEST PUSH1 0x5 DUP3 ADD SWAP1 POP SWAP2 SWAP1 POP JUMP JUMPDEST PUSH1 0x0 PUSH3 0x7E1 PUSH1 0x5 DUP4 PUSH3 0x893 JUMP JUMPDEST SWAP2 POP PUSH3 0x7EE DUP3 PUSH3 0x97E JUMP JUMPDEST PUSH1 0x5 DUP3 ADD SWAP1 POP SWAP2 SWAP1 POP JUMP JUMPDEST PUSH1 0x0 PUSH3 0x808 PUSH1 0x9 DUP4 PUSH3 0x893 JUMP JUMPDEST SWAP2 POP PUSH3 0x815 DUP3 PUSH3 0x9A7 JUMP JUMPDEST PUSH1 0x9 DUP3 ADD SWAP1 POP SWAP2 SWAP1 POP JUMP JUMPDEST PUSH1 0x0 PUSH3 0x82D DUP3 PUSH3 0x75D JUMP JUMPDEST SWAP2 POP DUP2 SWAP1 POP SWAP2 SWAP1 POP JUMP JUMPDEST PUSH1 0x0 PUSH3 0x844 DUP3 PUSH3 0x784 JUMP JUMPDEST SWAP2 POP DUP2 SWAP1 POP SWAP2 SWAP1 POP JUMP JUMPDEST PUSH1 0x0 PUSH3 0x85B DUP3 PUSH3 0x7AB JUMP JUMPDEST SWAP2 POP DUP2 SWAP1 POP SWAP2 SWAP1 POP JUMP JUMPDEST PUSH1 0x0 PUSH3 0x872 DUP3 PUSH3 0x7D2 JUMP JUMPDEST SWAP2 POP DUP2 SWAP1 POP SWAP2 SWAP1 POP JUMP JUMPDEST PUSH1 0x0 PUSH3 0x889 DUP3 PUSH3 0x7F9 JUMP JUMPDEST SWAP2 POP DUP2 SWAP1 POP SWAP2 SWAP1 POP JUMP JUMPDEST PUSH1 0x0 DUP2 SWAP1 POP SWAP3 SWAP2 POP POP JUMP JUMPDEST PUSH1 0x0 PUSH1 0x2 DUP3 DIV SWAP1 POP PUSH1 0x1 DUP3 AND DUP1 PUSH3 0x8B7 JUMPI PUSH1 0x7F DUP3 AND SWAP2 POP JUMPDEST PUSH1 0x20 DUP3 LT DUP2 EQ ISZERO PUSH3 0x8CE JUMPI PUSH3 0x8CD PUSH3 0x8D4 JUMP JUMPDEST JUMPDEST POP SWAP2 SWAP1 POP JUMP JUMPDEST PUSH32 0x4E487B7100000000000000000000000000000000000000000000000000000000 PUSH1 0x0 MSTORE PUSH1 0x22 PUSH1 0x4 MSTORE PUSH1 0x24 PUSH1 0x0 REVERT JUMPDEST PUSH32 0x4D616C6179736961000000000000000000000000000000000000000000000000 PUSH1 0x0 DUP3 ADD MSTORE POP JUMP JUMPDEST PUSH32 0x556E697465642053746174657300000000000000000000000000000000000000 PUSH1 0x0 DUP3 ADD MSTORE POP JUMP JUMPDEST PUSH32 0x4368696E61000000000000000000000000000000000000000000000000000000 PUSH1 0x0 DUP3 ADD MSTORE POP JUMP JUMPDEST PUSH32 0x496E646961000000000000000000000000000000000000000000000000000000 PUSH1 0x0 DUP3 ADD MSTORE POP JUMP JUMPDEST PUSH32 0x53696E6761706F72650000000000000000000000000000000000000000000000 PUSH1 0x0 DUP3 ADD MSTORE POP JUMP JUMPDEST PUSH2 0xFED DUP1 PUSH3 0x9E0 PUSH1 0x0 CODECOPY PUSH1 0x0 RETURN INVALID PUSH1 0x80 PUSH1 0x40 MSTORE PUSH1 0x4 CALLDATASIZE LT PUSH2 0x3F JUMPI PUSH1 0x0 CALLDATALOAD PUSH1 0xE0 SHR DUP1 PUSH4 0xA3C5974 EQ PUSH2 0x44 JUMPI DUP1 PUSH4 0x84304FBB EQ PUSH2 0x74 JUMPI DUP1 PUSH4 0x9507D39A EQ PUSH2 0x9F JUMPI DUP1 PUSH4 0x9F3DF11A EQ PUSH2 0xDF JUMPI JUMPDEST PUSH1 0x0 DUP1 REVERT JUMPDEST PUSH2 0x5E PUSH1 0x4 DUP1 CALLDATASIZE SUB DUP2 ADD SWAP1 PUSH2 0x59 SWAP2 SWAP1 PUSH2 0x844 JUMP JUMPDEST PUSH2 0x11E JUMP JUMPDEST PUSH1 0x40 MLOAD PUSH2 0x6B SWAP2 SWAP1 PUSH2 0xA8C JUMP JUMPDEST PUSH1 0x40 MLOAD DUP1 SWAP2 SUB SWAP1 RETURN JUMPDEST CALLVALUE DUP1 ISZERO PUSH2 0x80 JUMPI PUSH1 0x0 DUP1 REVERT JUMPDEST POP PUSH2 0x89 PUSH2 0x231 JUMP JUMPDEST PUSH1 0x40 MLOAD PUSH2 0x96 SWAP2 SWAP1 PUSH2 0xA6A JUMP JUMPDEST PUSH1 0x40 MLOAD DUP1 SWAP2 SUB SWAP1 RETURN JUMPDEST CALLVALUE DUP1 ISZERO PUSH2 0xAB JUMPI PUSH1 0x0 DUP1 REVERT JUMPDEST POP PUSH2 0xC6 PUSH1 0x4 DUP1 CALLDATASIZE SUB DUP2 ADD SWAP1 PUSH2 0xC1 SWAP2 SWAP1 PUSH2 0x817 JUMP JUMPDEST PUSH2 0x30A JUMP JUMPDEST PUSH1 0x40 MLOAD PUSH2 0xD6 SWAP5 SWAP4 SWAP3 SWAP2 SWAP1 PUSH2 0xAE5 JUMP JUMPDEST PUSH1 0x40 MLOAD DUP1 SWAP2 SUB SWAP1 RETURN JUMPDEST CALLVALUE DUP1 ISZERO PUSH2 0xEB JUMPI PUSH1 0x0 DUP1 REVERT JUMPDEST POP PUSH2 0x106 PUSH1 0x4 DUP1 CALLDATASIZE SUB DUP2 ADD SWAP1 PUSH2 0x101 SWAP2 SWAP1 PUSH2 0x7CE JUMP JUMPDEST PUSH2 0x492 JUMP JUMPDEST PUSH1 0x40 MLOAD PUSH2 0x115 SWAP4 SWAP3 SWAP2 SWAP1 PUSH2 0xAA7 JUMP JUMPDEST PUSH1 0x40 MLOAD DUP1 SWAP2 SUB SWAP1 RETURN JUMPDEST PUSH1 0x0 PUSH2 0x12D DUP8 DUP8 DUP7 DUP7 DUP7 PUSH2 0x595 JUMP JUMPDEST ISZERO PUSH2 0x222 JUMPI PUSH1 0x0 DUP7 SWAP1 DUP1 PUSH1 0x1 DUP2 SLOAD ADD DUP1 DUP3 SSTORE DUP1 SWAP2 POP POP PUSH1 0x1 SWAP1 SUB SWAP1 PUSH1 0x0 MSTORE PUSH1 0x20 PUSH1 0x0 KECCAK256 ADD PUSH1 0x0 SWAP1 SWAP2 SWAP1 SWAP2 SWAP1 SWAP2 POP SSTORE PUSH1 0x40 MLOAD DUP1 PUSH1 0x80 ADD PUSH1 0x40 MSTORE DUP1 DUP8 DUP2 MSTORE PUSH1 0x20 ADD DUP7 DUP2 MSTORE PUSH1 0x20 ADD DUP6 DUP2 MSTORE PUSH1 0x20 ADD TIMESTAMP DUP2 MSTORE POP PUSH1 0x1 PUSH1 0x0 DUP9 DUP2 MSTORE PUSH1 0x20 ADD SWAP1 DUP2 MSTORE PUSH1 0x20 ADD PUSH1 0x0 KECCAK256 PUSH1 0x0 DUP3 ADD MLOAD DUP2 PUSH1 0x0 ADD SSTORE PUSH1 0x20 DUP3 ADD MLOAD DUP2 PUSH1 0x1 ADD SWAP1 DUP1 MLOAD SWAP1 PUSH1 0x20 ADD SWAP1 PUSH2 0x1B5 SWAP3 SWAP2 SWAP1 PUSH2 0x68C JUMP JUMPDEST POP PUSH1 0x40 DUP3 ADD MLOAD DUP2 PUSH1 0x2 ADD SWAP1 DUP1 MLOAD SWAP1 PUSH1 0x20 ADD SWAP1 PUSH2 0x1D2 SWAP3 SWAP2 SWAP1 PUSH2 0x68C JUMP JUMPDEST POP PUSH1 0x60 DUP3 ADD MLOAD DUP2 PUSH1 0x3 ADD SSTORE SWAP1 POP POP PUSH1 0x1 PUSH1 0x4 DUP6 PUSH1 0x40 MLOAD PUSH2 0x1F2 SWAP2 SWAP1 PUSH2 0xA53 JUMP JUMPDEST SWAP1 DUP2 MSTORE PUSH1 0x20 ADD PUSH1 0x40 MLOAD DUP1 SWAP2 SUB SWAP1 KECCAK256 PUSH1 0x2 ADD PUSH1 0x0 DUP3 DUP3 SLOAD PUSH2 0x212 SWAP2 SWAP1 PUSH2 0xBFF JUMP JUMPDEST SWAP3 POP POP DUP2 SWAP1 SSTORE POP PUSH1 0x1 SWAP1 POP PUSH2 0x227 JUMP JUMPDEST PUSH1 0x0 SWAP1 POP JUMPDEST SWAP7 SWAP6 POP POP POP POP POP POP JUMP JUMPDEST PUSH1 0x60 PUSH1 0x3 DUP1 SLOAD DUP1 PUSH1 0x20 MUL PUSH1 0x20 ADD PUSH1 0x40 MLOAD SWAP1 DUP2 ADD PUSH1 0x40 MSTORE DUP1 SWAP3 SWAP2 SWAP1 DUP2 DUP2 MSTORE PUSH1 0x20 ADD PUSH1 0x0 SWAP1 JUMPDEST DUP3 DUP3 LT ISZERO PUSH2 0x301 JUMPI DUP4 DUP3 SWAP1 PUSH1 0x0 MSTORE PUSH1 0x20 PUSH1 0x0 KECCAK256 ADD DUP1 SLOAD PUSH2 0x274 SWAP1 PUSH2 0xE1E JUMP JUMPDEST DUP1 PUSH1 0x1F ADD PUSH1 0x20 DUP1 SWAP2 DIV MUL PUSH1 0x20 ADD PUSH1 0x40 MLOAD SWAP1 DUP2 ADD PUSH1 0x40 MSTORE DUP1 SWAP3 SWAP2 SWAP1 DUP2 DUP2 MSTORE PUSH1 0x20 ADD DUP3 DUP1 SLOAD PUSH2 0x2A0 SWAP1 PUSH2 0xE1E JUMP JUMPDEST DUP1 ISZERO PUSH2 0x2ED JUMPI DUP1 PUSH1 0x1F LT PUSH2 0x2C2 JUMPI PUSH2 0x100 DUP1 DUP4 SLOAD DIV MUL DUP4 MSTORE SWAP2 PUSH1 0x20 ADD SWAP2 PUSH2 0x2ED JUMP JUMPDEST DUP3 ADD SWAP2 SWAP1 PUSH1 0x0 MSTORE PUSH1 0x20 PUSH1 0x0 KECCAK256 SWAP1 JUMPDEST DUP2 SLOAD DUP2 MSTORE SWAP1 PUSH1 0x1 ADD SWAP1 PUSH1 0x20 ADD DUP1 DUP4 GT PUSH2 0x2D0 JUMPI DUP3 SWAP1 SUB PUSH1 0x1F AND DUP3 ADD SWAP2 JUMPDEST POP POP POP POP POP DUP2 MSTORE PUSH1 0x20 ADD SWAP1 PUSH1 0x1 ADD SWAP1 PUSH2 0x255 JUMP JUMPDEST POP POP POP POP SWAP1 POP SWAP1 JUMP JUMPDEST PUSH1 0x0 PUSH1 0x60 DUP1 PUSH1 0x0 PUSH1 0x1 PUSH1 0x0 DUP7 DUP2 MSTORE PUSH1 0x20 ADD SWAP1 DUP2 MSTORE PUSH1 0x20 ADD PUSH1 0x0 KECCAK256 PUSH1 0x0 ADD SLOAD PUSH1 0x1 PUSH1 0x0 DUP8 DUP2 MSTORE PUSH1 0x20 ADD SWAP1 DUP2 MSTORE PUSH1 0x20 ADD PUSH1 0x0 KECCAK256 PUSH1 0x1 ADD PUSH1 0x1 PUSH1 0x0 DUP9 DUP2 MSTORE PUSH1 0x20 ADD SWAP1 DUP2 MSTORE PUSH1 0x20 ADD PUSH1 0x0 KECCAK256 PUSH1 0x2 ADD PUSH1 0x1 PUSH1 0x0 DUP10 DUP2 MSTORE PUSH1 0x20 ADD SWAP1 DUP2 MSTORE PUSH1 0x20 ADD PUSH1 0x0 KECCAK256 PUSH1 0x3 ADD SLOAD DUP3 DUP1 SLOAD PUSH2 0x377 SWAP1 PUSH2 0xE1E JUMP JUMPDEST DUP1 PUSH1 0x1F ADD PUSH1 0x20 DUP1 SWAP2 DIV MUL PUSH1 0x20 ADD PUSH1 0x40 MLOAD SWAP1 DUP2 ADD PUSH1 0x40 MSTORE DUP1 SWAP3 SWAP2 SWAP1 DUP2 DUP2 MSTORE PUSH1 0x20 ADD DUP3 DUP1 SLOAD PUSH2 0x3A3 SWAP1 PUSH2 0xE1E JUMP JUMPDEST DUP1 ISZERO PUSH2 0x3F0 JUMPI DUP1 PUSH1 0x1F LT PUSH2 0x3C5 JUMPI PUSH2 0x100 DUP1 DUP4 SLOAD DIV MUL DUP4 MSTORE SWAP2 PUSH1 0x20 ADD SWAP2 PUSH2 0x3F0 JUMP JUMPDEST DUP3 ADD SWAP2 SWAP1 PUSH1 0x0 MSTORE PUSH1 0x20 PUSH1 0x0 KECCAK256 SWAP1 JUMPDEST DUP2 SLOAD DUP2 MSTORE SWAP1 PUSH1 0x1 ADD SWAP1 PUSH1 0x20 ADD DUP1 DUP4 GT PUSH2 0x3D3 JUMPI DUP3 SWAP1 SUB PUSH1 0x1F AND DUP3 ADD SWAP2 JUMPDEST POP POP POP POP POP SWAP3 POP DUP2 DUP1 SLOAD PUSH2 0x403 SWAP1 PUSH2 0xE1E JUMP JUMPDEST DUP1 PUSH1 0x1F ADD PUSH1 0x20 DUP1 SWAP2 DIV MUL PUSH1 0x20 ADD PUSH1 0x40 MLOAD SWAP1 DUP2 ADD PUSH1 0x40 MSTORE DUP1 SWAP3 SWAP2 SWAP1 DUP2 DUP2 MSTORE PUSH1 0x20 ADD DUP3 DUP1 SLOAD PUSH2 0x42F SWAP1 PUSH2 0xE1E JUMP JUMPDEST DUP1 ISZERO PUSH2 0x47C JUMPI DUP1 PUSH1 0x1F LT PUSH2 0x451 JUMPI PUSH2 0x100 DUP1 DUP4 SLOAD DIV MUL DUP4 MSTORE SWAP2 PUSH1 0x20 ADD SWAP2 PUSH2 0x47C JUMP JUMPDEST DUP3 ADD SWAP2 SWAP1 PUSH1 0x0 MSTORE PUSH1 0x20 PUSH1 0x0 KECCAK256 SWAP1 JUMPDEST DUP2 SLOAD DUP2 MSTORE SWAP1 PUSH1 0x1 ADD SWAP1 PUSH1 0x20 ADD DUP1 DUP4 GT PUSH2 0x45F JUMPI DUP3 SWAP1 SUB PUSH1 0x1F AND DUP3 ADD SWAP2 JUMPDEST POP POP POP POP POP SWAP2 POP SWAP4 POP SWAP4 POP SWAP4 POP SWAP4 POP SWAP2 SWAP4 POP SWAP2 SWAP4 JUMP JUMPDEST PUSH1 0x60 PUSH1 0x0 DUP1 PUSH1 0x4 DUP5 PUSH1 0x40 MLOAD PUSH2 0x4A7 SWAP2 SWAP1 PUSH2 0xA53 JUMP JUMPDEST SWAP1 DUP2 MSTORE PUSH1 0x20 ADD PUSH1 0x40 MLOAD DUP1 SWAP2 SUB SWAP1 KECCAK256 PUSH1 0x0 ADD PUSH1 0x4 DUP6 PUSH1 0x40 MLOAD PUSH2 0x4C8 SWAP2 SWAP1 PUSH2 0xA53 JUMP JUMPDEST SWAP1 DUP2 MSTORE PUSH1 0x20 ADD PUSH1 0x40 MLOAD DUP1 SWAP2 SUB SWAP1 KECCAK256 PUSH1 0x1 ADD SLOAD PUSH1 0x4 DUP7 PUSH1 0x40 MLOAD PUSH2 0x4EA SWAP2 SWAP1 PUSH2 0xA53 JUMP JUMPDEST SWAP1 DUP2 MSTORE PUSH1 0x20 ADD PUSH1 0x40 MLOAD DUP1 SWAP2 SUB SWAP1 KECCAK256 PUSH1 0x2 ADD SLOAD DUP3 DUP1 SLOAD PUSH2 0x508 SWAP1 PUSH2 0xE1E JUMP JUMPDEST DUP1 PUSH1 0x1F ADD PUSH1 0x20 DUP1 SWAP2 DIV MUL PUSH1 0x20 ADD PUSH1 0x40 MLOAD SWAP1 DUP2 ADD PUSH1 0x40 MSTORE DUP1 SWAP3 SWAP2 SWAP1 DUP2 DUP2 MSTORE PUSH1 0x20 ADD DUP3 DUP1 SLOAD PUSH2 0x534 SWAP1 PUSH2 0xE1E JUMP JUMPDEST DUP1 ISZERO PUSH2 0x581 JUMPI DUP1 PUSH1 0x1F LT PUSH2 0x556 JUMPI PUSH2 0x100 DUP1 DUP4 SLOAD DIV MUL DUP4 MSTORE SWAP2 PUSH1 0x20 ADD SWAP2 PUSH2 0x581 JUMP JUMPDEST DUP3 ADD SWAP2 SWAP1 PUSH1 0x0 MSTORE PUSH1 0x20 PUSH1 0x0 KECCAK256 SWAP1 JUMPDEST DUP2 SLOAD DUP2 MSTORE SWAP1 PUSH1 0x1 ADD SWAP1 PUSH1 0x20 ADD DUP1 DUP4 GT PUSH2 0x564 JUMPI DUP3 SWAP1 SUB PUSH1 0x1F AND DUP3 ADD SWAP2 JUMPDEST POP POP POP POP POP SWAP3 POP SWAP3 POP SWAP3 POP SWAP3 POP SWAP2 SWAP4 SWAP1 SWAP3 POP JUMP JUMPDEST PUSH1 0x0 DUP1 PUSH2 0x5A3 DUP5 DUP5 DUP8 PUSH2 0x5CC JUMP JUMPDEST SWAP1 POP PUSH1 0x0 PUSH2 0x5BA DUP9 DUP4 PUSH1 0x0 ADD MLOAD DUP5 PUSH1 0x20 ADD MLOAD PUSH2 0x66A JUMP JUMPDEST SWAP1 POP DUP7 DUP2 EQ SWAP3 POP POP POP SWAP6 SWAP5 POP POP POP POP POP JUMP JUMPDEST PUSH2 0x5D4 PUSH2 0x712 JUMP JUMPDEST PUSH1 0x0 PUSH1 0x2 DUP4 PUSH1 0x40 MLOAD PUSH2 0x5E6 SWAP2 SWAP1 PUSH2 0xA53 JUMP JUMPDEST SWAP1 DUP2 MSTORE PUSH1 0x20 ADD PUSH1 0x40 MLOAD DUP1 SWAP2 SUB SWAP1 KECCAK256 PUSH1 0x40 MLOAD DUP1 PUSH1 0x40 ADD PUSH1 0x40 MSTORE SWAP1 DUP2 PUSH1 0x0 DUP3 ADD SLOAD DUP2 MSTORE PUSH1 0x20 ADD PUSH1 0x1 DUP3 ADD SLOAD DUP2 MSTORE POP POP SWAP1 POP PUSH1 0x0 PUSH2 0x62A DUP7 DUP4 PUSH1 0x0 ADD MLOAD DUP5 PUSH1 0x20 ADD MLOAD PUSH2 0x66A JUMP JUMPDEST SWAP1 POP PUSH1 0x0 PUSH2 0x641 DUP7 DUP5 PUSH1 0x0 ADD MLOAD DUP6 PUSH1 0x20 ADD MLOAD PUSH2 0x66A JUMP JUMPDEST SWAP1 POP PUSH1 0x0 PUSH1 0x40 MLOAD DUP1 PUSH1 0x40 ADD PUSH1 0x40 MSTORE DUP1 DUP5 DUP2 MSTORE PUSH1 0x20 ADD DUP4 DUP2 MSTORE POP SWAP1 POP DUP1 SWAP5 POP POP POP POP POP SWAP4 SWAP3 POP POP POP JUMP JUMPDEST PUSH1 0x0 DUP2 DUP4 DUP6 PUSH2 0x679 SWAP2 SWAP1 PUSH2 0xCA8 JUMP JUMPDEST PUSH2 0x683 SWAP2 SWAP1 PUSH2 0xE81 JUMP JUMPDEST SWAP1 POP SWAP4 SWAP3 POP POP POP JUMP JUMPDEST DUP3 DUP1 SLOAD PUSH2 0x698 SWAP1 PUSH2 0xE1E JUMP JUMPDEST SWAP1 PUSH1 0x0 MSTORE PUSH1 0x20 PUSH1 0x0 KECCAK256 SWAP1 PUSH1 0x1F ADD PUSH1 0x20 SWAP1 DIV DUP2 ADD SWAP3 DUP3 PUSH2 0x6BA JUMPI PUSH1 0x0 DUP6 SSTORE PUSH2 0x701 JUMP JUMPDEST DUP3 PUSH1 0x1F LT PUSH2 0x6D3 JUMPI DUP1 MLOAD PUSH1 0xFF NOT AND DUP4 DUP1 ADD OR DUP6 SSTORE PUSH2 0x701 JUMP JUMPDEST DUP3 DUP1 ADD PUSH1 0x1 ADD DUP6 SSTORE DUP3 ISZERO PUSH2 0x701 JUMPI SWAP2 DUP3 ADD JUMPDEST DUP3 DUP2 GT ISZERO PUSH2 0x700 JUMPI DUP3 MLOAD DUP3 SSTORE SWAP2 PUSH1 0x20 ADD SWAP2 SWAP1 PUSH1 0x1 ADD SWAP1 PUSH2 0x6E5 JUMP JUMPDEST JUMPDEST POP SWAP1 POP PUSH2 0x70E SWAP2 SWAP1 PUSH2 0x72C JUMP JUMPDEST POP SWAP1 JUMP JUMPDEST PUSH1 0x40 MLOAD DUP1 PUSH1 0x40 ADD PUSH1 0x40 MSTORE DUP1 PUSH1 0x0 DUP2 MSTORE PUSH1 0x20 ADD PUSH1 0x0 DUP2 MSTORE POP SWAP1 JUMP JUMPDEST JUMPDEST DUP1 DUP3 GT ISZERO PUSH2 0x745 JUMPI PUSH1 0x0 DUP2 PUSH1 0x0 SWAP1 SSTORE POP PUSH1 0x1 ADD PUSH2 0x72D JUMP JUMPDEST POP SWAP1 JUMP JUMPDEST PUSH1 0x0 PUSH2 0x75C PUSH2 0x757 DUP5 PUSH2 0xB5D JUMP JUMPDEST PUSH2 0xB38 JUMP JUMPDEST SWAP1 POP DUP3 DUP2 MSTORE PUSH1 0x20 DUP2 ADD DUP5 DUP5 DUP5 ADD GT ISZERO PUSH2 0x778 JUMPI PUSH2 0x777 PUSH2 0xF73 JUMP JUMPDEST JUMPDEST PUSH2 0x783 DUP5 DUP3 DUP6 PUSH2 0xDDC JUMP JUMPDEST POP SWAP4 SWAP3 POP POP POP JUMP JUMPDEST PUSH1 0x0 DUP3 PUSH1 0x1F DUP4 ADD SLT PUSH2 0x7A0 JUMPI PUSH2 0x79F PUSH2 0xF6E JUMP JUMPDEST JUMPDEST DUP2 CALLDATALOAD PUSH2 0x7B0 DUP5 DUP3 PUSH1 0x20 DUP7 ADD PUSH2 0x749 JUMP JUMPDEST SWAP2 POP POP SWAP3 SWAP2 POP POP JUMP JUMPDEST PUSH1 0x0 DUP2 CALLDATALOAD SWAP1 POP PUSH2 0x7C8 DUP2 PUSH2 0xFA0 JUMP JUMPDEST SWAP3 SWAP2 POP POP JUMP JUMPDEST PUSH1 0x0 PUSH1 0x20 DUP3 DUP5 SUB SLT ISZERO PUSH2 0x7E4 JUMPI PUSH2 0x7E3 PUSH2 0xF7D JUMP JUMPDEST JUMPDEST PUSH1 0x0 DUP3 ADD CALLDATALOAD PUSH8 0xFFFFFFFFFFFFFFFF DUP2 GT ISZERO PUSH2 0x802 JUMPI PUSH2 0x801 PUSH2 0xF78 JUMP JUMPDEST JUMPDEST PUSH2 0x80E DUP5 DUP3 DUP6 ADD PUSH2 0x78B JUMP JUMPDEST SWAP2 POP POP SWAP3 SWAP2 POP POP JUMP JUMPDEST PUSH1 0x0 PUSH1 0x20 DUP3 DUP5 SUB SLT ISZERO PUSH2 0x82D JUMPI PUSH2 0x82C PUSH2 0xF7D JUMP JUMPDEST JUMPDEST PUSH1 0x0 PUSH2 0x83B DUP5 DUP3 DUP6 ADD PUSH2 0x7B9 JUMP JUMPDEST SWAP2 POP POP SWAP3 SWAP2 POP POP JUMP JUMPDEST PUSH1 0x0 DUP1 PUSH1 0x0 DUP1 PUSH1 0x0 DUP1 PUSH1 0xC0 DUP8 DUP10 SUB SLT ISZERO PUSH2 0x861 JUMPI PUSH2 0x860 PUSH2 0xF7D JUMP JUMPDEST JUMPDEST PUSH1 0x0 PUSH2 0x86F DUP10 DUP3 DUP11 ADD PUSH2 0x7B9 JUMP JUMPDEST SWAP7 POP POP PUSH1 0x20 PUSH2 0x880 DUP10 DUP3 DUP11 ADD PUSH2 0x7B9 JUMP JUMPDEST SWAP6 POP POP PUSH1 0x40 DUP8 ADD CALLDATALOAD PUSH8 0xFFFFFFFFFFFFFFFF DUP2 GT ISZERO PUSH2 0x8A1 JUMPI PUSH2 0x8A0 PUSH2 0xF78 JUMP JUMPDEST JUMPDEST PUSH2 0x8AD DUP10 DUP3 DUP11 ADD PUSH2 0x78B JUMP JUMPDEST SWAP5 POP POP PUSH1 0x60 DUP8 ADD CALLDATALOAD PUSH8 0xFFFFFFFFFFFFFFFF DUP2 GT ISZERO PUSH2 0x8CE JUMPI PUSH2 0x8CD PUSH2 0xF78 JUMP JUMPDEST JUMPDEST PUSH2 0x8DA DUP10 DUP3 DUP11 ADD PUSH2 0x78B JUMP JUMPDEST SWAP4 POP POP PUSH1 0x80 PUSH2 0x8EB DUP10 DUP3 DUP11 ADD PUSH2 0x7B9 JUMP JUMPDEST SWAP3 POP POP PUSH1 0xA0 PUSH2 0x8FC DUP10 DUP3 DUP11 ADD PUSH2 0x7B9 JUMP JUMPDEST SWAP2 POP POP SWAP3 SWAP6 POP SWAP3 SWAP6 POP SWAP3 SWAP6 JUMP JUMPDEST PUSH1 0x0 PUSH2 0x915 DUP4 DUP4 PUSH2 0x9A1 JUMP JUMPDEST SWAP1 POP SWAP3 SWAP2 POP POP JUMP JUMPDEST PUSH1 0x0 PUSH2 0x928 DUP3 PUSH2 0xB9E JUMP JUMPDEST PUSH2 0x932 DUP2 DUP6 PUSH2 0xBC1 JUMP JUMPDEST SWAP4 POP DUP4 PUSH1 0x20 DUP3 MUL DUP6 ADD PUSH2 0x944 DUP6 PUSH2 0xB8E JUMP JUMPDEST DUP1 PUSH1 0x0 JUMPDEST DUP6 DUP2 LT ISZERO PUSH2 0x980 JUMPI DUP5 DUP5 SUB DUP10 MSTORE DUP2 MLOAD PUSH2 0x961 DUP6 DUP3 PUSH2 0x909 JUMP JUMPDEST SWAP5 POP PUSH2 0x96C DUP4 PUSH2 0xBB4 JUMP JUMPDEST SWAP3 POP PUSH1 0x20 DUP11 ADD SWAP10 POP POP PUSH1 0x1 DUP2 ADD SWAP1 POP PUSH2 0x948 JUMP JUMPDEST POP DUP3 SWAP8 POP DUP8 SWAP6 POP POP POP POP POP POP SWAP3 SWAP2 POP POP JUMP JUMPDEST PUSH2 0x99B DUP2 PUSH2 0xDC6 JUMP JUMPDEST DUP3 MSTORE POP POP JUMP JUMPDEST PUSH1 0x0 PUSH2 0x9AC DUP3 PUSH2 0xBA9 JUMP JUMPDEST PUSH2 0x9B6 DUP2 DUP6 PUSH2 0xBD2 JUMP JUMPDEST SWAP4 POP PUSH2 0x9C6 DUP2 DUP6 PUSH1 0x20 DUP7 ADD PUSH2 0xDEB JUMP JUMPDEST PUSH2 0x9CF DUP2 PUSH2 0xF82 JUMP JUMPDEST DUP5 ADD SWAP2 POP POP SWAP3 SWAP2 POP POP JUMP JUMPDEST PUSH1 0x0 PUSH2 0x9E5 DUP3 PUSH2 0xBA9 JUMP JUMPDEST PUSH2 0x9EF DUP2 DUP6 PUSH2 0xBE3 JUMP JUMPDEST SWAP4 POP PUSH2 0x9FF DUP2 DUP6 PUSH1 0x20 DUP7 ADD PUSH2 0xDEB JUMP JUMPDEST PUSH2 0xA08 DUP2 PUSH2 0xF82 JUMP JUMPDEST DUP5 ADD SWAP2 POP POP SWAP3 SWAP2 POP POP JUMP JUMPDEST PUSH1 0x0 PUSH2 0xA1E DUP3 PUSH2 0xBA9 JUMP JUMPDEST PUSH2 0xA28 DUP2 DUP6 PUSH2 0xBF4 JUMP JUMPDEST SWAP4 POP PUSH2 0xA38 DUP2 DUP6 PUSH1 0x20 DUP7 ADD PUSH2 0xDEB JUMP JUMPDEST DUP1 DUP5 ADD SWAP2 POP POP SWAP3 SWAP2 POP POP JUMP JUMPDEST PUSH2 0xA4D DUP2 PUSH2 0xDD2 JUMP JUMPDEST DUP3 MSTORE POP POP JUMP JUMPDEST PUSH1 0x0 PUSH2 0xA5F DUP3 DUP5 PUSH2 0xA13 JUMP JUMPDEST SWAP2 POP DUP2 SWAP1 POP SWAP3 SWAP2 POP POP JUMP JUMPDEST PUSH1 0x0 PUSH1 0x20 DUP3 ADD SWAP1 POP DUP2 DUP2 SUB PUSH1 0x0 DUP4 ADD MSTORE PUSH2 0xA84 DUP2 DUP5 PUSH2 0x91D JUMP JUMPDEST SWAP1 POP SWAP3 SWAP2 POP POP JUMP JUMPDEST PUSH1 0x0 PUSH1 0x20 DUP3 ADD SWAP1 POP PUSH2 0xAA1 PUSH1 0x0 DUP4 ADD DUP5 PUSH2 0x992 JUMP JUMPDEST SWAP3 SWAP2 POP POP JUMP JUMPDEST PUSH1 0x0 PUSH1 0x60 DUP3 ADD SWAP1 POP DUP2 DUP2 SUB PUSH1 0x0 DUP4 ADD MSTORE PUSH2 0xAC1 DUP2 DUP7 PUSH2 0x9DA JUMP JUMPDEST SWAP1 POP PUSH2 0xAD0 PUSH1 0x20 DUP4 ADD DUP6 PUSH2 0xA44 JUMP JUMPDEST PUSH2 0xADD PUSH1 0x40 DUP4 ADD DUP5 PUSH2 0xA44 JUMP JUMPDEST SWAP5 SWAP4 POP POP POP POP JUMP JUMPDEST PUSH1 0x0 PUSH1 0x80 DUP3 ADD SWAP1 POP PUSH2 0xAFA PUSH1 0x0 DUP4 ADD DUP8 PUSH2 0xA44 JUMP JUMPDEST DUP2 DUP2 SUB PUSH1 0x20 DUP4 ADD MSTORE PUSH2 0xB0C DUP2 DUP7 PUSH2 0x9DA JUMP JUMPDEST SWAP1 POP DUP2 DUP2 SUB PUSH1 0x40 DUP4 ADD MSTORE PUSH2 0xB20 DUP2 DUP6 PUSH2 0x9DA JUMP JUMPDEST SWAP1 POP PUSH2 0xB2F PUSH1 0x60 DUP4 ADD DUP5 PUSH2 0xA44 JUMP JUMPDEST SWAP6 SWAP5 POP POP POP POP POP JUMP JUMPDEST PUSH1 0x0 PUSH2 0xB42 PUSH2 0xB53 JUMP JUMPDEST SWAP1 POP PUSH2 0xB4E DUP3 DUP3 PUSH2 0xE50 JUMP JUMPDEST SWAP2 SWAP1 POP JUMP JUMPDEST PUSH1 0x0 PUSH1 0x40 MLOAD SWAP1 POP SWAP1 JUMP JUMPDEST PUSH1 0x0 PUSH8 0xFFFFFFFFFFFFFFFF DUP3 GT ISZERO PUSH2 0xB78 JUMPI PUSH2 0xB77 PUSH2 0xF3F JUMP JUMPDEST JUMPDEST PUSH2 0xB81 DUP3 PUSH2 0xF82 JUMP JUMPDEST SWAP1 POP PUSH1 0x20 DUP2 ADD SWAP1 POP SWAP2 SWAP1 POP JUMP JUMPDEST PUSH1 0x0 DUP2 SWAP1 POP PUSH1 0x20 DUP3 ADD SWAP1 POP SWAP2 SWAP1 POP JUMP JUMPDEST PUSH1 0x0 DUP2 MLOAD SWAP1 POP SWAP2 SWAP1 POP JUMP JUMPDEST PUSH1 0x0 DUP2 MLOAD SWAP1 POP SWAP2 SWAP1 POP JUMP JUMPDEST PUSH1 0x0 PUSH1 0x20 DUP3 ADD SWAP1 POP SWAP2 SWAP1 POP JUMP JUMPDEST PUSH1 0x0 DUP3 DUP3 MSTORE PUSH1 0x20 DUP3 ADD SWAP1 POP SWAP3 SWAP2 POP POP JUMP JUMPDEST PUSH1 0x0 DUP3 DUP3 MSTORE PUSH1 0x20 DUP3 ADD SWAP1 POP SWAP3 SWAP2 POP POP JUMP JUMPDEST PUSH1 0x0 DUP3 DUP3 MSTORE PUSH1 0x20 DUP3 ADD SWAP1 POP SWAP3 SWAP2 POP POP JUMP JUMPDEST PUSH1 0x0 DUP2 SWAP1 POP SWAP3 SWAP2 POP POP JUMP JUMPDEST PUSH1 0x0 PUSH2 0xC0A DUP3 PUSH2 0xDD2 JUMP JUMPDEST SWAP2 POP PUSH2 0xC15 DUP4 PUSH2 0xDD2 JUMP JUMPDEST SWAP3 POP DUP3 PUSH32 0xFFFFFFFFFFFFFFFFFFFFFFFFFFFFFFFFFFFFFFFFFFFFFFFFFFFFFFFFFFFFFFFF SUB DUP3 GT ISZERO PUSH2 0xC4A JUMPI PUSH2 0xC49 PUSH2 0xEB2 JUMP JUMPDEST JUMPDEST DUP3 DUP3 ADD SWAP1 POP SWAP3 SWAP2 POP POP JUMP JUMPDEST PUSH1 0x0 DUP1 DUP3 SWAP2 POP DUP4 SWAP1 POP JUMPDEST PUSH1 0x1 DUP6 GT ISZERO PUSH2 0xC9F JUMPI DUP1 DUP7 DIV DUP2 GT ISZERO PUSH2 0xC7B JUMPI PUSH2 0xC7A PUSH2 0xEB2 JUMP JUMPDEST JUMPDEST PUSH1 0x1 DUP6 AND ISZERO PUSH2 0xC8A JUMPI DUP1 DUP3 MUL SWAP2 POP JUMPDEST DUP1 DUP2 MUL SWAP1 POP PUSH2 0xC98 DUP6 PUSH2 0xF93 JUMP JUMPDEST SWAP5 POP PUSH2 0xC5F JUMP JUMPDEST SWAP5 POP SWAP5 SWAP3 POP POP POP JUMP JUMPDEST PUSH1 0x0 PUSH2 0xCB3 DUP3 PUSH2 0xDD2 JUMP JUMPDEST SWAP2 POP PUSH2 0xCBE DUP4 PUSH2 0xDD2 JUMP JUMPDEST SWAP3 POP PUSH2 0xCEB PUSH32 0xFFFFFFFFFFFFFFFFFFFFFFFFFFFFFFFFFFFFFFFFFFFFFFFFFFFFFFFFFFFFFFFF DUP5 DUP5 PUSH2 0xCF3 JUMP JUMPDEST SWAP1 POP SWAP3 SWAP2 POP POP JUMP JUMPDEST PUSH1 0x0 DUP3 PUSH2 0xD03 JUMPI PUSH1 0x1 SWAP1 POP PUSH2 0xDBF JUMP JUMPDEST DUP2 PUSH2 0xD11 JUMPI PUSH1 0x0 SWAP1 POP PUSH2 0xDBF JUMP JUMPDEST DUP2 PUSH1 0x1 DUP2 EQ PUSH2 0xD27 JUMPI PUSH1 0x2 DUP2 EQ PUSH2 0xD31 JUMPI PUSH2 0xD60 JUMP JUMPDEST PUSH1 0x1 SWAP2 POP POP PUSH2 0xDBF JUMP JUMPDEST PUSH1 0xFF DUP5 GT ISZERO PUSH2 0xD43 JUMPI PUSH2 0xD42 PUSH2 0xEB2 JUMP JUMPDEST JUMPDEST DUP4 PUSH1 0x2 EXP SWAP2 POP DUP5 DUP3 GT ISZERO PUSH2 0xD5A JUMPI PUSH2 0xD59 PUSH2 0xEB2 JUMP JUMPDEST JUMPDEST POP PUSH2 0xDBF JUMP JUMPDEST POP PUSH1 0x20 DUP4 LT PUSH2 0x133 DUP4 LT AND PUSH1 0x4E DUP5 LT PUSH1 0xB DUP5 LT AND OR ISZERO PUSH2 0xD95 JUMPI DUP3 DUP3 EXP SWAP1 POP DUP4 DUP2 GT ISZERO PUSH2 0xD90 JUMPI PUSH2 0xD8F PUSH2 0xEB2 JUMP JUMPDEST JUMPDEST PUSH2 0xDBF JUMP JUMPDEST PUSH2 0xDA2 DUP5 DUP5 DUP5 PUSH1 0x1 PUSH2 0xC55 JUMP JUMPDEST SWAP3 POP SWAP1 POP DUP2 DUP5 DIV DUP2 GT ISZERO PUSH2 0xDB9 JUMPI PUSH2 0xDB8 PUSH2 0xEB2 JUMP JUMPDEST JUMPDEST DUP2 DUP2 MUL SWAP1 POP JUMPDEST SWAP4 SWAP3 POP POP POP JUMP JUMPDEST PUSH1 0x0 DUP2 ISZERO ISZERO SWAP1 POP SWAP2 SWAP1 POP JUMP JUMPDEST PUSH1 0x0 DUP2 SWAP1 POP SWAP2 SWAP1 POP JUMP JUMPDEST DUP3 DUP2 DUP4 CALLDATACOPY PUSH1 0x0 DUP4 DUP4 ADD MSTORE POP POP POP JUMP JUMPDEST PUSH1 0x0 JUMPDEST DUP4 DUP2 LT ISZERO PUSH2 0xE09 JUMPI DUP1 DUP3 ADD MLOAD DUP2 DUP5 ADD MSTORE PUSH1 0x20 DUP2 ADD SWAP1 POP PUSH2 0xDEE JUMP JUMPDEST DUP4 DUP2 GT ISZERO PUSH2 0xE18 JUMPI PUSH1 0x0 DUP5 DUP5 ADD MSTORE JUMPDEST POP POP POP POP JUMP JUMPDEST PUSH1 0x0 PUSH1 0x2 DUP3 DIV SWAP1 POP PUSH1 0x1 DUP3 AND DUP1 PUSH2 0xE36 JUMPI PUSH1 0x7F DUP3 AND SWAP2 POP JUMPDEST PUSH1 0x20 DUP3 LT DUP2 EQ ISZERO PUSH2 0xE4A JUMPI PUSH2 0xE49 PUSH2 0xF10 JUMP JUMPDEST JUMPDEST POP SWAP2 SWAP1 POP JUMP JUMPDEST PUSH2 0xE59 DUP3 PUSH2 0xF82 JUMP JUMPDEST DUP2 ADD DUP2 DUP2 LT PUSH8 0xFFFFFFFFFFFFFFFF DUP3 GT OR ISZERO PUSH2 0xE78 JUMPI PUSH2 0xE77 PUSH2 0xF3F JUMP JUMPDEST JUMPDEST DUP1 PUSH1 0x40 MSTORE POP POP POP JUMP JUMPDEST PUSH1 0x0 PUSH2 0xE8C DUP3 PUSH2 0xDD2 JUMP JUMPDEST SWAP2 POP PUSH2 0xE97 DUP4 PUSH2 0xDD2 JUMP JUMPDEST SWAP3 POP DUP3 PUSH2 0xEA7 JUMPI PUSH2 0xEA6 PUSH2 0xEE1 JUMP JUMPDEST JUMPDEST DUP3 DUP3 MOD SWAP1 POP SWAP3 SWAP2 POP POP JUMP JUMPDEST PUSH32 0x4E487B7100000000000000000000000000000000000000000000000000000000 PUSH1 0x0 MSTORE PUSH1 0x11 PUSH1 0x4 MSTORE PUSH1 0x24 PUSH1 0x0 REVERT JUMPDEST PUSH32 0x4E487B7100000000000000000000000000000000000000000000000000000000 PUSH1 0x0 MSTORE PUSH1 0x12 PUSH1 0x4 MSTORE PUSH1 0x24 PUSH1 0x0 REVERT JUMPDEST PUSH32 0x4E487B7100000000000000000000000000000000000000000000000000000000 PUSH1 0x0 MSTORE PUSH1 0x22 PUSH1 0x4 MSTORE PUSH1 0x24 PUSH1 0x0 REVERT JUMPDEST PUSH32 0x4E487B7100000000000000000000000000000000000000000000000000000000 PUSH1 0x0 MSTORE PUSH1 0x41 PUSH1 0x4 MSTORE PUSH1 0x24 PUSH1 0x0 REVERT JUMPDEST PUSH1 0x0 DUP1 REVERT JUMPDEST PUSH1 0x0 DUP1 REVERT JUMPDEST PUSH1 0x0 DUP1 REVERT JUMPDEST PUSH1 0x0 DUP1 REVERT JUMPDEST PUSH1 0x0 PUSH1 0x1F NOT PUSH1 0x1F DUP4 ADD AND SWAP1 POP SWAP2 SWAP1 POP JUMP JUMPDEST PUSH1 0x0 DUP2 PUSH1 0x1 SHR SWAP1 POP SWAP2 SWAP1 POP JUMP JUMPDEST PUSH2 0xFA9 DUP2 PUSH2 0xDD2 JUMP JUMPDEST DUP2 EQ PUSH2 0xFB4 JUMPI PUSH1 0x0 DUP1 REVERT JUMPDEST POP JUMP INVALID LOG2 PUSH5 0x6970667358 0x22 SLT KECCAK256 SHR 0xE6 0x5D 0xB0 0xDF 0xD8 0x4D 0xF6 0x4A 0xCE SLOAD PC 0xBE PUSH13 0xF5ED7AC38749958B21B152D83D PUSH26 0xD8CEB68D64736F6C634300080600330000000000000000000000 "
		},
		"gasEstimates": {
			"creation": {
				"codeDepositCost": "815400",
				"executionCost": "infinite",
				"totalCost": "infinite"
			},
			"external": {
				"add(uint256,uint256,string,string,uint256,uint256)": "infinite",
				"get(uint256)": "infinite",
				"getCountryAnalaytics(string)": "infinite",
				"getCountryNames()": "infinite"
			},
			"internal": {
				"addCountry(string memory,uint256,uint256)": "infinite",
				"computeRsa(uint256,uint256,uint256)": "infinite",
				"getClinicPublicKey(uint256,uint256,string memory)": "infinite",
				"verifyClinic(uint256,uint256,string memory,uint256,uint256)": "infinite"
			}
		},
		"methodIdentifiers": {
			"add(uint256,uint256,string,string,uint256,uint256)": "0a3c5974",
			"get(uint256)": "9507d39a",
			"getCountryAnalaytics(string)": "9f3df11a",
			"getCountryNames()": "84304fbb"
		}
	},
	"abi": [
		{
			"inputs": [],
			"stateMutability": "nonpayable",
			"type": "constructor"
		},
		{
			"inputs": [
				{
					"internalType": "uint256",
					"name": "passportNumberEncrypted",
					"type": "uint256"
				},
				{
					"internalType": "uint256",
					"name": "passportNumber",
					"type": "uint256"
				},
				{
					"internalType": "string",
					"name": "vaccineManufacturer",
					"type": "string"
				},
				{
					"internalType": "string",
					"name": "country",
					"type": "string"
				},
				{
					"internalType": "uint256",
					"name": "clinicKeyCert",
					"type": "uint256"
				},
				{
					"internalType": "uint256",
					"name": "clinicModulusCert",
					"type": "uint256"
				}
			],
			"name": "add",
			"outputs": [
				{
					"internalType": "bool",
					"name": "",
					"type": "bool"
				}
			],
			"stateMutability": "payable",
			"type": "function"
		},
		{
			"inputs": [
				{
					"internalType": "uint256",
					"name": "passportNumber",
					"type": "uint256"
				}
			],
			"name": "get",
			"outputs": [
				{
					"internalType": "uint256",
					"name": "",
					"type": "uint256"
				},
				{
					"internalType": "string",
					"name": "",
					"type": "string"
				},
				{
					"internalType": "string",
					"name": "",
					"type": "string"
				},
				{
					"internalType": "uint256",
					"name": "",
					"type": "uint256"
				}
			],
			"stateMutability": "view",
			"type": "function"
		},
		{
			"inputs": [
				{
					"internalType": "string",
					"name": "countryName",
					"type": "string"
				}
			],
			"name": "getCountryAnalaytics",
			"outputs": [
				{
					"internalType": "string",
					"name": "",
					"type": "string"
				},
				{
					"internalType": "uint256",
					"name": "",
					"type": "uint256"
				},
				{
					"internalType": "uint256",
					"name": "",
					"type": "uint256"
				}
			],
			"stateMutability": "view",
			"type": "function"
		},
		{
			"inputs": [],
			"name": "getCountryNames",
			"outputs": [
				{
					"internalType": "string[]",
					"name": "",
					"type": "string[]"
				}
			],
			"stateMutability": "view",
			"type": "function"
		}
	]
}